:020000040040BA
:1000000070310120E5024000ED024000EF024000A7
:10001000F1024000F3024000F50240000000000041
:10002000000000000000000000000000F702400097
:10003000F902400000000000FB024000FD02400009
:10004000DD424300FF024000FF024000FF0240008B
:10005000FF024000FF024000FF024000FF0240009C
:10006000052F4300FF02400000000000093D43004F
:10007000153D4300FF024000FF024000FF02400028
:10008000FF024000FF024000FF024000FF0240006C
:10009000492F4300FF024000FF024000FF024000E2
:1000A000FF0240007945430045484300994843001A
:1000B000FF02400039264300FF024000000000001C
:1000C0000000000000000000000000000000000030
:1000D0000000000000000000000000000000000020
:1000E0000000000000000000000000000000000010
:1000F000000000000000000000000000FF024000BF
:10010000354A4300FF02400000F002F800F0C0F85A
:100110000AA090E8000C82448344AAF10107DA4562
:1001200001D100F0B5F8AFF2090EBAE80F0013F0F4
:10013000010F18BFFB1A43F0010318475CF10400DC
:100140008CF104000A444FF0000C10F8013B13F04E
:10015000070408BF10F8014B1D1108BF10F8015B20
:10016000641E05D010F8016B641E01F8016BF9D113
:1001700013F0080F1EBF10F8014BAD1C0C1B09D16A
:100180006D1E58BF01F801CBFAD505E014F8016BDC
:1001900001F8016B6D1EF9D59142D6D3704700006E
:1001A000103A24BF78C878C1FAD8520724BF30C8A3
:1001B00030C144BF04680C60704700000023002475
:1001C00000250026103A28BF78C1FBD8520728BF67
:1001D00030C148BF0B6070476E2911F0E480702970
:1001E00010F0618566290BF039A365290BF036A361
:1001F00067290BF033A361290BF032A303681B0AB4
:1002000028BF41F08001692910F0D284642910F0E0
:10021000CF84752910F0CC846F2911F0DC81782906
:1002200010F02D85E92911F07781E42911F074810E
:10023000F52911F07181EF2911F0D981F82910F019
:100240002C850368DB0928BF41F08001632911F088
:10025000E680732911F0EB80E32911F0D785F329AB
:1002600011F0DC85002070471FB510F00AFE11F078
:100270003DF80400002000214AF06EFD401C606043
:10028000002000214AF07EFDE0601FBD10B510BDCA
:1002900011F0E8FD1146FFF7E7FF3EF077FB11F0A4
:1002A000B9FE03B4FFF7F2FF03BC37F029FD0000ED
:1002B0000B49D1F800C04A685CF8043B1068184448
:1002C00042F8040B8C4528BFA1F1DC0C8A4228BF00
:1002D000A1F1DC02C1F800C04A6020F00040704784
:1002E000080F01200948804709480047FEE7FEE75C
:1002F000FEE7FEE7FEE7FEE7FEE7FEE7FEE7FEE7D6
:1003000004480549054A064B704700006145430013
:1003100009014000700F012070310120701101208F
:100320007011012000F0F9BF30B4FA4990E81C10B8
:1003300001F1AC0585E81C100069C1F8BC0030BCB7
:1003400000F0EBBF10B4F34A03460024506CB2F83F
:10035000482021468A420CD9B0F807C0BCF1000FF2
:1003600007D0B0F800C09C451CBF0930491CF1D132
:100370000446204610BC70472DE9F0410B4682B080
:1003800014460146B0F5077F1CBFA1F50070B0F11F
:100390001A000DD0A1F5007006381CBFA1F1006055
:1003A000B0F5087004D0DC48814218BF002000D1AD
:1003B0000120002520B9002B18BFF92040F06683EA
:1003C00040F2222C01270422D24EA1F222206145C4
:1003D00000F0C08217DCA1F50070222880F0438174
:1003E000DFE800F054FDFCFBFAF9F8F7F6F5F4F35A
:1003F000F2F1F0EFEEEDECEBF9EAF949E99CE89C5B
:10040000B1E7E6E5E4E3C549A0EB010C88425CD026
:1004100024DCC349A0EB0103884200F0528115DCC3
:10042000C04BA0EB0301984277D008DC012800F014
:10043000B782BD49401871D0012870D013E101295D
:100440006ED002296DD003296CD00CE1082B65D247
:10045000DFE803F064F5F4F3F2F12731BCF1100F9B
:100460005CD2DFE80CF05B3C46506068F4F3F25B72
:1004700084F1F0EFEEED3A46277006F15B01601C67
:1004800010F09EFD02B02846BDE8F0813A46277084
:1004900006F15C01601C10F093FD02B02846BDE837
:1004A000F081227006F12401601C10F089FD02B079
:1004B0002846BDE8F081227006F12801601C10F08A
:1004C0007FFD02B02846BDE8F081227006F12C01C4
:1004D000601C10F075FD02B02846BDE8F081227066
:1004E00006F13001601C10F06BFD02B02846BDE83B
:1004F000F081227006F13401601C10F061FD02B041
:100500002846BDE8F081227006F13801601C10F029
:1005100057FD284602B0BDE8F081B0E0A3E0A5E0B9
:10052000B6E0BEE0C5E0227006F13C01601C10F0B0
:1005300047FD2846EEE7227006F14001601C10F0EE
:100540003FFD2846E6E7B6F84810204699427FD995
:1005500003EBC301726CCB1D1A44128822B309222B
:100560000270736C601C194410F02AFD60E04FF0BB
:10057000000CB6F84820716CF9276046824209D910
:10058000B1F8076036B10E889E421CBF401C09318D
:10059000F4D18C465FEA0C0105D009222270601C60
:1005A00010F00EFD00271BE052E0CAE1C0E1B6E109
:1005B000A1E18CE167E162E15AE156E101E1F8E095
:1005C000EFE0E6E0DDE0D4E0CBE0C3E0BBE0B7E0A5
:1005D00009E040E010E04EE13EE134E12AE120E1B3
:1005E000384600F050BA3A46277006F15A01601CAE
:1005F00010F0E6FC28468DE7F06C03EB430100EBBE
:100600004100B6F85010994222D90188D0F8022052
:10061000D1421DD0082121704449B1F84A10A4F8F4
:1006200001100188A4F80310D0F80200C4F80500F6
:10063000002000F028BA7BE063E05AE051E048E097
:10064000C2E1A6E19EE196E18DE1B1E1C8E0C0E042
:10065000F92000F018BA227006F16001601C10F059
:10066000AFFC284656E7F42000F010BA3A4627704F
:1006700006F16401601C10F0A3FC28464AE73A46E4
:10068000277006F16501601C10F09AFC284641E7CE
:100690003A46277006F16601601C10F091FC28466E
:1006A00038E7227006F16801601C10F089FC2846CA
:1006B00030E7227006F16C01601C10F081FC2846C6
:1006C00028E7227006F17001601C10F079FC2846C2
:1006D00020E7227006F17401601C10F071FC2846BE
:1006E00018E7227006F17801601C10F069FC2846BA
:1006F00010E7227006F17C01601C10F061FC2846B6
:1007000008E7227006F18001601C10F059FC2846B1
:1007100000E7000020D800201B020008EFFFFF07C1
:10072000E7FFFF07E3FFFF071F0000F864DC00207E
:10073000227006F18401601C10F042FC2846E9E6B4
:100740002770627015E12270EC49601C10F038FCD3
:100750002846DFE62270311D601C10F031FC28466F
:10076000D8E6227006F10801601C10F029FC28462A
:10077000D0E6227006F10C01601C10F021FC284626
:10078000C8E6227006F11001601C10F019FC284622
:10079000C0E6227006F11401601C10F011FC28461E
:1007A000B8E6227006F11801601C10F009FC28461A
:1007B000B0E6227006F11C01601C10F001FC284616
:1007C000A8E6227006F12001601C10F0F9FB284613
:1007D000A0E6277096F88800002877D16070C8E0FE
:1007E000ADF80050B6F848300022716C2046002B5E
:1007F0000FD9B1F807C0BCF1000F05D0BDF800C09B
:100800000CF1010CADF800C0521C92B209319342B8
:10081000EFD8022202706946601C10F0D1FB284616
:1008200078E63A46277006F18901601C10F0C8FB93
:1008300028466FE63A46277006F18A01601C10F0E0
:10084000BFFB284666E63A46277006F18B01601C1E
:1008500010F0B6FB28465DE63A46277006F18C019B
:10086000601C10F0ADFB284654E62770677080E0EE
:10087000284625704EE62770284665704AE62770A0
:100880000220607075E00021032B88BFF9210BD294
:1008900063F3070065F30F2065F3174065F31F60EE
:1008A0002270C4F801000FE00ED14FF0030363F390
:1008B00007004FF0070363F30F2065F3174065F35C
:1008C0001F602270C4F801000846DCE06EE0694653
:1008D00040F2011033F02EFA20B9009800F00F001A
:1008E00086F88D003A46277006F18D01601C10F0E5
:1008F00067FB28460EE669464FF4907033F01AFA0B
:1009000020B97E48BDF80010A0F88E100222227097
:1009100006F18E01601C10F053FB2846FAE53A46BA
:10092000277006F19001601C10F04AFB2846F1E5A3
:100930000222227006F19201601C10F041FB284651
:10094000E8E50222227006F19401601C10F038FBE9
:100950002846DFE53A46277006F19601601C10F044
:100960002FFB2846D6E5227006F19801601C10F096
:1009700027FB2846CEE5227006F19C01601C10F092
:100980001FFBF6E7227006F1A001601C10F018FBB7
:10099000EFE7227006F1A401601C10F011FBE8E7FC
:1009A000277096F8A80000283FF418AF012015E73B
:1009B00053480622D0E90010CDE9001022706946A4
:1009C000601C10F0FDFAD4E740F2A7111E464FF06C
:1009D000E808A3F2A7108B425AD024DC40F2811120
:1009E000A6F281108E4255D018DC40F24111A6F2D9
:1009F00041108E424ED00ADC002E1EBFA6F580703C
:100A0000B0F101001F2845D0202841D021E0012865
:100A10002ED01F2818BF3F283CD01AE0A0F11F009D
:100A2000062816D834E00E2832D00ADC0E2810D260
:100A3000DFE800F00F2E2E2E0F0F0F0F0F2E2E2E91
:100A40002E2E122824D00ADC0F281CBF10281128B3
:100A50001ED0184633F09AF9207098B109E0592851
:100A600018D000F2A710B0F5004018BF0128F0D14F
:100A7000277004F10101304633F05CF9002808BF0B
:100A80004FF00008404600283FF444AD257041E592
:100A90002270EEE702212170EBE72DE9F04383B0ED
:100AA0000346B0F5077F1CBFA3F50070B0F11A0034
:100AB0000DD0A3F5007006381CBFA3F10060B0F59F
:100AC000087004D00F48834218BF002000D10120D5
:100AD00028B900291EBFF92003B0BDE8F08340F219
:100AE000222C064CA3F22220634500F033832FDC36
:100AF000A3F50070222880F0C08305E020D80020F4
:100B000054DA44001B020008DFE810F073007A0298
:100B10008A029602A2024701470155014901470195
:100B2000FD010B0220022B02360241024C02570249
:100B30006202470147014701470164004701400144
:100B400047014001D800B002D702F50201031203A9
:100B5000F94BA0EB030C98426ED02DDCF749A0EBCB
:100B60000103884200F08D811DDCF54BA0EB0301F1
:100B7000984200F04B810BDC012800F03683F149EC
:100B8000401800F02481012800F02F8100F075BB8F
:100B9000012900F04D81022900F05C81032900F059
:100BA000658100F06ABB082B80F06783DFE803F003
:100BB000EEEDECEBEAE92E39BCF1100F80F05D832D
:100BC000DFE80CF0E445505B6671ECEBEBEAEBE937
:100BD000E8E7E6E5104612780025012A04BF411C2B
:100BE00004F15B000FD000F084BA03B02846BDE8E2
:100BF000F083104612780025012A04BF411C04F13D
:100C00005C0040F0768210F0DBF9EEE710461278D7
:100C10000025042A04BF411C04F12400F3D000F095
:100C200068BA104612780025042A04BF411C04F15A
:100C30002800E8D000F05DBA104612780025042A9A
:100C400004BF411C04F12C0040F05382DBE7104646
:100C500012780025042A04BF411C04F13000D2D0D0
:100C600000F047BA104612780025042A04BF411C40
:100C700004F13400C7D000F03CBA104612780025C9
:100C8000042A04BF411C04F13800BCD000F031BA82
:100C9000104612780025042A04BF411C04F13C00D0
:100CA000B1D000F026BA104612780025042A04BFFD
:100CB000411C04F14000A6D000F01BBA1178E820D6
:100CC00009291CBF03B0BDE8F083D2F801000090F1
:100CD000D2F805000190507A8DF80800606CB4F8E5
:100CE0004810002206460B461546BDF80080BDF8A8
:100CF000077010E0B0F80090C14508BF1346674583
:100D00003CBF02F1010C8C4503D299420CBF6546F1
:100D100015460930521C914204D9B0F807C0BCF105
:100D2000000FE7D19A4238BF13469D420DD205EB22
:100D3000C50006EB000100F10900A3EB05023044F9
:100D400002EBC20210F081F90CE00BD903EBC300F7
:100D500000F10901A5EB03023144304402EBC20269
:100D600010F073F9606C05EBC5010844009901604F
:100D7000019941609DF808100172002003B0BDE8A0
:100D8000F083B5E0A9E09DE091E085E075E254E2F2
:100D90001DE20DE2FDE1EBE132E26CE223E11046FF
:100DA00012780025012A04BF411C04F15A003FF4C7
:100DB0002AAF00F09EB9104612780025042A04BF1D
:100DC000411C04F160003FF41EAF00F092B91078AE
:100DD0000025002840F08D81B4F8500000EB400061
:100DE0004100E06C10F0F5F9FFE651781278002030
:100DF000012A40F0AD81012908BF012138BF00213F
:100E000098BF84F86410B9D900F0A2B9517812786B
:100E10004FF00000012A40F09B81012908BF012109
:100E200038BF002198BF84F86510A7D900F090B9A9
:100E3000517812784FF00000012A40F08981012991
:100E400008BF012138BF002198BF84F8661095D9EA
:100E500000F07EB9104612784FF00005042A04BF56
:100E6000411C04F1680040F04481CCE61046127841
:100E70000025042A04BF411C04F16C0040F03981B4
:100E8000C1E6104612780025042A04BF411C04F173
:100E9000700040F02E81B6E6104612780025042A34
:100EA00004BF411C04F174003FF4ADAE21E11046D3
:100EB00012780025042A04BF411C04F178003FF495
:100EC000A2AE16E1104612780025042A04BF411C88
:100ED00004F17C003FF497AE0BE110461278002538
:100EE000042A04BF411C04F180003FF48CAE00E1F1
:100EF000104612780025042A04BF411C04F1840026
:100F00003FF481AEF5E0104612780024042A18BFA1
:100F1000E82401D0204631E7411C0B4810F050F87E
:100F2000F8E7104612780025042A04BF411C201D52
:100F30003FF469AEDDE00000EFFFFF07E7FFFF07CA
:100F4000E3FFFF071F0000F820D8002010461278AA
:100F50000025042A04BF411C04F108003FF453AEED
:100F6000C7E0104612780025042A04BF411C04F192
:100F70000C003FF448AEBCE0104612780025042A6D
:100F800004BF411C04F110003FF43DAEB1E0104637
:100F900012780025042A04BF411C04F114003FF418
:100FA00032AEA6E0104612780025042A04BF411C88
:100FB00004F118003FF427AE9BE01046127800259C
:100FC000042A04BF411C04F11C003FF41CAE90E055
:100FD000104612780025042A04BF411C04F12000A9
:100FE0003FF411AE85E0517812780020012A7CD1BF
:100FF00001297AD8002918BF012184F88810BDE69C
:10100000517812780020012A6FD108299CBF94F8EA
:101010008C208A4238BF84F88910FFF4AFAE97E085
:10102000517812780020012A5FD1322998BF84F8C4
:101030008A107FF6A3AE8BE0517812780020012A47
:1010400053D1072998BF84F88B107FF697AE7FE0C5
:10105000517812780020012A7AD194F889208A42A6
:1010600088BF84F88C103FF689AE71E010780025B7
:10107000567801283DD1CEB3042E3AD8694640F2C5
:10108000011032F057FE01A94FF4907032F052FE79
:1010900060BB0098694680B220F00F00304300909A
:1010A00040F2011032F006FF00BB84F88D6001A908
:1010B0004FF4907032F0FEFE97E5B2F80100ADF803
:1010C000000010780025022813D1BDF8006041F619
:1010D0006F4086420DD8511C4FF4907032F0EAFEFA
:1010E000002808BFA4F88E6001E031E001E03FF481
:1010F0007CADE82579E5517812780020012A27D1C6
:10110000642998BF84F890107FF638AE20E0B2F8DA
:101110000110ADF8001011780020022918D1BDF897
:101120000010002918BFA4F892107FF427AE0FE03A
:10113000B2F80110ADF8001011780020022907D193
:10114000BDF80010002918BFA4F894107FF416AE63
:10115000E82013E6517812780020012AF8D10029FE
:10116000F6D0642998BF84F896107FF607AEEFE7B3
:10117000D2F8011012780020042AE9D142F2283274
:101180008A4224BFB1F57A7FC4F89810BFF4F6AD57
:10119000DEE7D2F8011012780020042AD8D144F6F4
:1011A0002062914228BFC4F89C10BFF4E7ADCFE79E
:1011B000D2F8011012780020042AC9D144F6206226
:1011C000914228BFC4F8A010BFF4D8ADC0E7D2F850
:1011D000011012780020042ABAD1604A914228BF37
:1011E000C4F8A410BFF4CAADB2E751781278002059
:1011F000012AADD1002918BF012184F8A810BDE54E
:10120000002020606060A060E06020616061A061FB
:10121000E06120626062A062E06220636063A063BC
:10122000E0632064A066E06620676067A067E0670F
:10123000C4F88000C4F884009FE50D46E824A1F5B9
:101240008071164621391CBF3F29DF2911D028465D
:1012500032F09CFD00283FF45DAE711C284632F050
:1012600029FE002808BF00243FF454AE02287FF472
:1012700051AEFB244EE6FB2080E5F4207EE5F0B580
:10128000054600202A7883B0022A1CBF03B0F0BDB7
:10129000334E0023B6F85040F26C002C88BFB5F8EE
:1012A00002C021D91788674501D1104603E0921D7D
:1012B0005B1C9C42F6D8002818BF002214D00A708C
:1012C000A2B1B6F85000F16C401E00EB40004200A5
:1012D000881D0FF0BAFEF06C34F080FCF16C688869
:1012E0000880F06C03B0F0BD0122E8E701680091CE
:1012F0008488ADF80440F16C1A4A401A82FB002041
:10130000A0EBE07000EB40004200881D0FF09DFE56
:10131000F06C009901608480E3E710B5AC221249BB
:101320000F480FF0D4FE1148A0F1AC0401686164CD
:101330008189A4F848104168E164C189A4F850107B
:1013400081686165008AA4F8580032F0B2FE84F822
:101350005B0032F0AEFE84F85C0010BD084C01006A
:1013600020D80020ABAAAA2A5CDA4400CCD80020FE
:1013700070B5FB4A044682B01078A2F12806012815
:101380000BD092F84A03022819D3257DD02442F0CD
:10139000E9FB316851B902B070BD257DE22442F00D
:1013A000E1FB3168002904BF02B070BD8DF8005028
:1013B00001908DF801406846884702B070BDC0EBCF
:1013C0000011C1EBC101401C02EB810582F84A0308
:1013D000207805F8020F6088688060686860A068FF
:1013E000A860A089A881E289EA8105F1100021693D
:1013F0000FF0E6FD207D85F8A001607D85F8A10154
:10140000A07D85F8A201E07D85F8A30102B070BD42
:1014100010B5D44CA8B0A168002904BF28B010BDF5
:10142000016801918188ADF808100DF10A02019858
:10143000FEF7A2FF8DF80000A1686846884728B033
:1014400010BD00B583B0016801918188019B821DA8
:10145000ADF808101846FFF720FB8DF80000C148D2
:10146000C16800291CBF6846884703B000BD38B575
:1014700004464FF45772BC49B9480FF028FE207853
:101480000AF094FDB7480169002908BF38BD002063
:101490008DF800006846884738BDB14900B50A7824
:1014A00087B062B12839E2208969002904BF07B0FA
:1014B00000BD8DF800006846884707B000BDA94A06
:1014C00000880223A2F87403A84801220A70B0F829
:1014D0004A00A1F85403002081F84E0307218DF83B
:1014E000181003218DF800104FF6FF718DF80100E0
:1014F000ADF802108DF804308DF81400ADF8061028
:101500008DF8150006A98DF81600ADF80E2004918F
:1015100068460AF0A3FC07B000BD924908B5C96946
:101520000020002908BF08BD8DF8000068468847E4
:1015300008BDF0B58A4D04460026287883B0A5F191
:101540002807012832D0022803D0032846D003B050
:10155000F0BD20788649E22805D10878401CC0B249
:10156000087064283AD30E7095F84A034FF4D2718C
:10157000401EC0B285F84A0310FB01F205F5D37195
:10158000A81C0FF062FD2E70396895F84B23207867
:101590006368002904BF03B0F0BD8DF800208DF80A
:1015A000010068460193884703B0F0BD207860B120
:1015B0002E70B9692078002904BF03B0F0BD8DF802
:1015C00000006846884703B0F0BD012085F84E034F
:1015D00042F0C8FAC5F8500303B0F0BD2E7003B056
:1015E000F0BD2DE9F0415E4D0446007829788EB0BB
:1015F000A5F12806012948D00127002801BF5D4830
:1016000080F866700EB0BDE8F08101286CD0022829
:1016100004BF0EB0BDE8F08103281CBF0EB0BDE8CA
:10162000F081608B002804BF0EB0BDE8F081E06956
:10163000007807281CBF0EB0BDE8F0814B4C4FF678
:10164000FF78B4F85400404504BF0EB0BDE8F08107
:1016500095F8560300281CBF0EB0BDE8F08142F09B
:1016600081FA94F84610064601EB4100C0EBC11028
:1016700008EAC001002032F00AFD3044C5F85803E2
:1016800085F856730EB0BDE8F08100281CBF0EB07F
:10169000BDE8F0817169002904BF0EB0BDE8F0819A
:1016A000608B02280CBF01200020002804BF0EB070
:1016B000BDE8F081207902281CBF0EB0BDE8F081A2
:1016C0006088ADF8000094F822008DF80200E088F0
:1016D000ADF80400E069008840BAADF8060068463D
:1016E00088470EB0BDE8F0817068002804BF0EB0D6
:1016F000BDE8F0816088ADF800006068CDF80200B8
:10170000A068CDF80600A089ADF80A00E089ADF820
:101710000C002069CDF80E006069CDF81200208B16
:10172000ADF81600608BADF81800E069079094F8EA
:1017300022008DF8200094F823008DF8210042F05B
:1017400011FA099094F820008DF8280094F82100EF
:101750008DF829007168684688470EB0BDE8F081B1
:1017600008D90020E0D8002008DB440064DC002019
:101770008205002020D8002030B57E4D04468FB071
:10178000686A002804BF0FB030BD20788DF80000D3
:101790006088ADF80200211D01A834F027FAE08925
:1017A000ADF80E0004F1100104A834F01FFA608BAC
:1017B000ADF81A00E069079094F822008DF8200037
:1017C00094F823008DF8210042F0CCF9099094F8A8
:1017D00020008DF8280094F821008DF82900696A0E
:1017E000684688470FB030BD6249096A002908BFC2
:1017F0007047084770B5B0E838105E4A0E46A2E858
:101800003810B0E81A10A2E81A10D0E90010C2E9A6
:1018100000104FF45772584958480FF058FC3046A2
:10182000FEF782FDBDE870400AF0DDBB70B5514E99
:1018300088B03068002804BF08B070BD0AF0F9FB1A
:101840004E4C00252078012818D194F84E03A8B1F9
:1018500042F088F9D4F85013411AB4F84C0300EB65
:101860004002C2EBC010B1EBC00F07D32570B169C5
:10187000002019B18DF800006846884794F8560397
:101880000226012808D142F06DF9D4F85813081A3D
:101890000028D8BF84F85663207800281CBF08B001
:1018A00070BD94F8560302282DD1354984F856535B
:1018B000B1F85400A0F57F42FF3A24D003202070F5
:1018C000B1F844008DF80850020A8DF800208DF818
:1018D00001008DF80960B1F84A00ADF80A008DF8F2
:1018E0001C508DF81D508DF80C50ADF81660CDF8D9
:1018F00018D08DF81E5002A80AF0B0FA20780028FF
:101900001CBF08B070BD94F84A03002804BF08B09B
:1019100070BD01208DF80000A0788DF80100A0882E
:10192000ADF802001348D0F82E100191D0F8321013
:101930000291C08EADF80C00208AADF80E0011485F
:10194000049094F8A30100F001008DF8140094F8BD
:10195000A4018DF8150094F8A5018DF8160094F8EF
:10196000A20184F84B03267068460AF077FA08B0A3
:1019700070BD0000E0D8002008DB440008D900203A
:1019800064DC00201AD90020E54890F8B10000F08E
:10199000BABF30B4B0E83810E24AA2E8381090E894
:1019A000191082E8191030BC084600F0ACBF70B4C2
:1019B000DB4A8446002592F8B140D069138C294651
:1019C0000F2C02D0C28992B101E0028A7AB10122C1
:1019D0000DE00688664501D105460CE01230491C31
:1019E0008B4204D90F2C09D0C289002AEFD18B4237
:1019F00001D9002AEDD1284670BC7047028A002A1E
:101A0000F5D0E4E710B4C64A03460024506A128DAC
:101A100021468A420CD9B0F803C0BCF1000F07D0B0
:101A2000B0F800C09C451CBF401D491CF1D10446C4
:101A3000204610BC70472DE9F04383B014460B4696
:101A4000B0F5857F18BFB0F5907F13D0A0F100618D
:101A5000891E18BF71280DD0B0F1006F1CBFA0F116
:101A60000061B1F1200105D0A0F10061273918BF54
:101A7000002100D10121002521B9002B18BFF92038
:101A800040F0E282012104220827A54E4FF0020C0B
:101A9000B0F1006F00F0AA8160DCB0F5837F00F048
:101AA000CC8247DC5C287CD01FDC4F2800F0C5824C
:101AB00010DC49286FD006DC402818BF472840F0CA
:101AC000BA8200F0BABA4C286CD04E2800F0B58229
:101AD00000F0B1BA502866D0512865D0532876D08E
:101AE000592800F0AA8200F0A6BA40F20117A0F22D
:101AF000011CB8426CD00FDC5D2852D0712808BFA1
:101B0000F32000F0A182772800F09B81B0F5807F60
:101B100000F0938200F08FBABCF1010F73D0BCF1DA
:101B2000020F71D0BCF1030F6FD0BCF1040F6DD068
:101B300000F081BAA0F207171A2F80F07C82DFE84C
:101B400007F09BA3F8ABD5F8F7F6F5F8F4F8F8F83A
:101B5000F8F8F3F3F3F3F3F3F3F8F8DC6FF000685D
:101B60008044B8F1270F80F06682DFE808F0FCFBC4
:101B7000E224FAF9E2E2E2F8F7F6F5F4F3F2F1F032
:101B8000EFEEEDECEBEAE9E8E7E2E6E5E2E2E4E2DB
:101B9000DDE2E2E2FE0021700A4606F14701601C28
:101BA00003E036E015E01DE026E00FF009FA03B08F
:101BB0002846BDE8F083624684F800C006F1800143
:101BC000601C0FF0FDF9284603B0BDE8F08323E068
:101BD0002CE021700A4606F14801601C0FF0F0F974
:101BE0002846F1E7624684F800C006F14A01601C0D
:101BF0000FF0E6F92846E7E7217096F8560000282E
:101C000079D0012077E018E01EE025E02CE028469E
:101C1000DAE721706170FAE7624684F800C006F1E5
:101C20005401601C0FF0CCF92846CDE722703C49E6
:101C3000601C0FF0C5F92846C6E72270311D601CF4
:101C40000FF0BEF92846BFE7227006F10801601CBC
:101C50000FF0B6F92846B7E7227006F10C01601CB8
:101C60000FF0AEF92846AFE7227006F11001601CB4
:101C70000FF0A6F92846A7E7227006F11401601CB0
:101C80000FF09EF928469FE7227006F11801601CAC
:101C90000FF096F9284697E796F8B11020460F29DD
:101CA00009D103EBC3024FF0100CF1690CEB4202B7
:101CB0001144098801B10121328C9A4254D900297A
:101CC00052D01221017096F8B110112924BF1021B1
:101CD000017003EBC302F16901EB42010278601C61
:101CE0000FF06EF9002000F0ACB904E0217096F816
:101CF0004000002885D1607089E7318D20469942E7
:101D000032D903EB8301726ACB1C1A4412885AB38E
:101D100005220270736A601C19440FF051F97EE0CD
:101D200064DC002018DD002085E156E04BE041E056
:101D300037E082E119E072E155E14DE145E13DE135
:101D400035E12CE123E11AE111E108E1FFE0DFE0F8
:101D5000D5E0CBE0C1E09CE092E0B5E0ABE0A1E0F3
:101D60008CE069E075E05EE05BE04FF0000C328DE6
:101D7000716AF9276046824209D9B1F8036036B129
:101D80000E889E421CBF401C491DF4D18C465FEA60
:101D90000C0171D005222270601C0FF011F9002790
:101DA0006AE021700A4606F14101601C0FF008F953
:101DB000284609E721700A4606F14201601C0FF02F
:101DC000FFF8284600E7624684F800C006F14401A7
:101DD000601C0FF0F5F82846F6E621700A4606F179
:101DE0004601601C0FF0ECF82846EDE6F06A03EBC4
:101DF000430100EB4100318E994212D90188D0F89D
:101E00000220D1420DD02770B6F84A10A4F8011074
:101E10000188A4F80310D0F80200C4F805000020DF
:101E20000FE1F9200DE13A46277006F14C01601CE4
:101E30000FF0C6F82846C7E64FF4C870ADF80000AA
:101E4000E5E0227006F17C01601C0FF0B9F828462D
:101E5000BAE6F9271846FFF7AAFD68B112232370E6
:101E600096F8B110112924BF102222702278014661
:101E7000601C0FF0A5F800273846E2E0E220E3E01E
:101E800021700A4606F18701601C0FF099F8284678
:101E90009AE621700A4606F18801601C0FF090F85E
:101EA000284691E621700A4606F18201601C0FF077
:101EB00087F8284688E621700A4606F18301601CEF
:101EC0000FF07EF828467FE60322227006F1840197
:101ED000601C0FF075F8284676E621700A4606F178
:101EE0008901601C0FF06CF828466DE621700A46E7
:101EF00006F18A01601C0FF063F8284664E6217041
:101F00000A4606F18B01601C0FF05AF828465BE682
:101F1000ADF80050338C0021F069002B88BF96F893
:101F2000B16074D90F2E0ED0C28902B1012222B144
:101F3000BDF80020521CADF80020491C89B21230B7
:101F40008B42EFD863E0028A002AEFD1EFE72270DC
:101F500006F18C01601C0FF033F8284634E622703D
:101F600006F19001601C0FF02BF828462CE6227039
:101F700006F19401601C0FF023F8284624E6227035
:101F800006F19801601C0FF01BF828461CE6227031
:101F900006F19C01601C0FF013F8284614E622702D
:101FA00006F1A001601C0FF00BF828460CE6227029
:101FB00006F1A401601C0FF003F828E6227006F178
:101FC000A801601C0EF0FCFF21E6227006F1AC01B6
:101FD000601C0EF0F5FF1AE6217096F8B00000289C
:101FE0003FF489AE0DE6ADF80050328D0021706AE5
:101FF000002A0CD9B0F8033023B1BDF800305B1CC7
:10200000ADF80030491C89B2401D8A42F2D86246C0
:1020100084F800C06946601C0EF0D2FFF7E5FE4868
:102020000622D0E90010CDE9001022706946601C3C
:102030000EF0C6FFEBE5F42006E02246194631F02B
:1020400037FB00283FF4C0AD2570BDE52DE9F04F0A
:10205000F24BA5B00F4605461446B0F5857F18BF74
:10206000B5F5907F10D0A5F10060801E18BF712DCE
:102070000AD0B5F1006F18BF9D4205D0A5F10060F0
:10208000273818BF002000D1012010B9002F40F0E0
:10209000CC820020E24E4FF00108B5F1006F00F055
:1020A000E2835DDCB5F5837F00F0878244DC5C2D44
:1020B00000F0D98320DC4F2D00F07F8211DC492D08
:1020C00055D007DC402D00F0CE83472D00F07582FF
:1020D00000F0CBBB4C2D4BD04E2D00F06E8200F0AB
:1020E000C4BB502D45D0512D44D0532D43D0592D34
:1020F00000F0638200F0B9BB40F20112A5F20111B9
:10210000954239D00EDC5D2D00F0AD83712D00F0CD
:102110006282772D00F08B82B5F5807F00F04D82D2
:1021200000F0A3BB012978D0022977D0032976D00B
:10213000042975D000F099BBA5F207101A2880F089
:102140009483DFE800F0C8D2FCDCFBFCFAF9F8FC71
:10215000F7FCFCFCF6F6F5F5F5F5F5F5F5FCFCF409
:102160006FF000612944272980F07F8305E02DE08E
:102170003AE043E05BE069E07BE0DFE811F0120267
:10218000DA00DA00DA00DA006102E000E000E000E4
:102190006C028B029702DA00DA00A102B102C202DD
:1021A000DA00D302DE02E802F202FC0206031003A8
:1021B0001A032403E0002F03DA00E000E000DA0055
:1021C000E0003E03E000E000E000DA0022780025B5
:1021D000012A40F00183611C06F147000EF0F0FE79
:1021E00025B02846BDE8F08F22780025012A04BFDB
:1021F000611C06F1480040F0EF8242E022784FF087
:102200000008022A18BF4FF0E8080AD05FEA080069
:1022100000F0D38125B0BDE8F08F35E03DE046E029
:102220004FE0611C06F14A000EF0CAFEEEE712789C
:1022300000206178012A40F02B82012900F22882D7
:10224000002918BF012186F85610E3E722784FF0E5
:102250000008022A18BF4FF0E80804D05FEA08001F
:1022600000F0AB81D6E7611C06F154000EF0A8FE29
:10227000F4E722780025042A04BF611C684840F076
:10228000AB820EF09DFEABE722780025042A04BF46
:10229000611C301D40F0A082F3E722780025042A5B
:1022A00004BF611C06F1080040F09682E9E722783D
:1022B0000025042A04BF611C06F10C0040F08C824A
:1022C000DFE722780025042A04BF611C06F1100014
:1022D00040F08282D5E722780025042A04BF611CE1
:1022E00006F11400CDD000F077BA22780025042A38
:1022F00004BF611C06F11800C3D000F06DBA318C28
:10230000E820002986D02278122A18BF102A81D10D
:10231000D4F801000090D4F805000190D4F8090029
:102320000290D4F80D000390B4F8110008E0B1E079
:102330009BE298E221E116E10AE1FFE09DE03CE149
:10234000ADF81000F06996F8B1704FF00002054644
:102350008BB214460F2F07D0B0F80EC0BCF1000F9F
:1023600007D04FF0010C04E0B0F810C0BCF1000F32
:10237000F7D1BDF800B0BDF810A0BDF80E90A1F1E6
:1023800001088A4233D2BCF1000F30D0B0F800E02F
:10239000DE4508BF13460F2F06D0B0F80EE0F1451A
:1023A00006D24FF0010E05E0B0F810E0F245F8D388
:1023B0004FF0000EBEF1000F18BF904503D99942AF
:1023C0000CBF541C14461230521C9142D9D90F2F05
:1023D00007D0B0F80EC0BCF1000FD2D04FF0010C06
:1023E000CFE7B0F810C0BCF1000FCAD0F6E79142B9
:1023F00008BF521E9A4238BF13469C4219D204EBC2
:10240000C40005EB40014FF0120202EB40002844EB
:10241000A3EB040206E0000064DE44002000000894
:1024200064DC002002EBC2024FEA42020EF00DFE15
:1024300011E010D903EBC3004FF0120101EB400192
:10244000A4EB030202EBC202294405EB40004FEA71
:1024500042020EF0FAFDF06904EBC40100EB41000A
:102460000099016001994160029981600399C160FE
:10247000BDF8101001820020CCE6127800206178AF
:10248000012A6FD101296DD8002918BF012186F8D2
:102490004010BFE62178E82005297FF4BBAEE8466E
:1024A000511C404633F0ABFB706A338D00228446EA
:1024B0001D461446BDF80090BDF8031010E0BCF8AE
:1024C00000A0CA4508BF1346B9423CBF571CAF42E3
:1024D00003D29D420CBF3C461446521C0CF1050C25
:1024E000954203D9BCF80370002FE8D19A4238BF57
:1024F00013469C420DD204EB840200EB020102F170
:1025000005021044A3EB040202EB82020EF09DFDD3
:102510000CE00BD903EB830202F1050101441044E6
:10252000A4EB030202EB82020EF08FFD706A04EB53
:1025300084010844414633F062FB74E022780025B0
:10254000012A04BF611C06F141003FF49AAE43E149
:1025500022780025012A04BF611C06F142003FF4E5
:1025600090AE39E194E022780025022A04BF611C74
:1025700006F144003FF485AE2EE1107800251146A7
:1025800001287DD1C2B26846491C0EF019FD9DF8A4
:102590000000411EFD2998BF86F846007FF620AE58
:1025A0001AE122784FF00008082A18BF4FF0E80817
:1025B0000BD05FEA08007FF42DAE25B022463946E5
:1025C0002846BDE8F04F31F0A3B9611C06F14C007C
:1025D0000EF0F6FCEDE72546022F26D2E14B2978D6
:1025E00007EB0712D418102905D0002908BF84F87A
:1025F000570018D04CE094F8570030B104F158005F
:102600001022691C0EF046FC68B1D5F80100A065E7
:10261000D5F80500E065D5F809002066D5F80D006D
:10262000606684F857800020F4E5F920F2E522780E
:102630000025042A04BF611C06F17C0020D120E69D
:1026400020780025E0B9308E00EB40004100F06AB0
:102650000EF0BFFDC4E521786078012918D1022869
:1026600016D886F88200012804BFAA208DF8010040
:1026700005D002280CBF5520FF208DF8010000E096
:10268000AAE08DF800806A464FF4BA711846E7E078
:10269000E820BFE5227800206178012AF8D10429DA
:1026A00098BF86F883107FF6B5ADF1E72278002554
:1026B000032A04BF611C06F184003FF4E2AD8BE005
:1026C000227800206178012AE2D1012908BF012186
:1026D00038BF002198BF86F889107FF69BADD7E7F9
:1026E000227861784FF00000012AD1D1012908BF7A
:1026F000012138BF002198BF86F88A107FF68AAD85
:10270000C6E7227861784FF00000012AC0D1012984
:1027100008BF012138BF002198BF86F88B107FF6D3
:1027200079ADB5E722784FF00005042A04BF611C9B
:1027300006F18C003FF4A5AD4EE022780025042A76
:1027400004BF611C06F190003FF49BAD44E0227889
:102750000025042A04BF611C06F194003FF491ADEA
:102760003AE022780025042A04BF611C06F1980093
:102770003FF487AD30E022780025042A04BF611CB5
:1027800006F19C003FF47DAD26E022780025042A66
:1027900004BF611C06F1A0003FF473AD1CE0227879
:1027A0000025042A04BF611C06F1A4003FF469ADB2
:1027B00012E022780025042A04BF611C06F1A8005B
:1027C0003FF45FAD08E022780025042A04BF611CB5
:1027D00006F1AC003FF455ADE82501E52278002074
:1027E0006178012A7FF454AF01293FF651AF0029E7
:1027F00018BF012186F8B0100CE530607060B06041
:10280000F06030617061B061C6F88C00C6F890006D
:10281000C6F89400C6F89800C6F89C00C6F8A00058
:10282000C6F8A400C6F8A800C6F8AC00CDF80100B0
:1028300004208DF800006A4600214FF4837031F0C7
:1028400067F800287FF4E6AC6A46002140F20910E0
:1028500031F05EF800287FF4DDAC6A460021424882
:1028600031F056F8D6E4FB20D4E4F420D2E4F0B5FD
:10287000054600202A7883B0022A1CBF03B0F0BDB1
:10288000384E0023348EF26A002C88BFB5F802C09F
:1028900020D91788674501D1104603E0921D5B1CC3
:1028A0009C42F6D8002818BF002213D00A709AB1B3
:1028B000308EF16A401E00EB40004200881D0EF091
:1028C000C4FBF06A33F08AF9F16A68880880F06A1C
:1028D00003B0F0BD0122E9E7016800918488ADF8FA
:1028E0000440F16A214A401A82FB0020A0EBE0700C
:1028F00000EB40004200881D0EF0A7FBF06A009933
:1029000001608480E3E770B50546B4221849154894
:102910000EF0DDFB1749A1F1B4040868E061888A74
:10292000208448686062C88A20858868E062088BD5
:102930002086C86860630869A063488BA087888B7D
:10294000E08731F0B6FB84F8470031F0B2FB84F841
:10295000480084F8B1500F2D04BF022084F84100D4
:1029600070BD000064DC00201C000008ABAAAA2A8D
:102970006CDE440018DD002070B5FE49044682B0CC
:102980000878A1F1280601280BD091F84E030228FF
:1029900019D3257DD02441F0E5F8316851B902B052
:1029A00070BD257DE22441F0DDF83168002904BFC7
:1029B00002B070BD8DF8005001908DF8014068465E
:1029C000884702B070BDD32210FB02F2401C01EB1D
:1029D000420581F84E03207805F8020F6088688070
:1029E00060686860A068A860A089A881E289EA811F
:1029F00005F1100021690EF0E3FA207D85F8A001B1
:102A0000607D85F8A101A07D85F8A201E07D85F8B3
:102A1000A301207E85F8A40102B070BD10B5D64C8C
:102A2000A8B0A168002904BF28B010BD01680191B9
:102A30008188ADF808100DF10A020198FEF7FBFF3E
:102A40008DF80000A1686846884728B010BD00B521
:102A500083B0016801918188019B821DADF8081047
:102A60001846FFF7F3FA8DF80000C348C168002943
:102A70001CBF6846884703B000BD38B504464FF414
:102A80005F72BE49BB480EF022FB20780AF013FEAD
:102A9000B9480169002908BF38BD00208DF8000041
:102AA0006846884738BDF0B5B24CAFB0217869B1FF
:102AB000A4F12801E2208969002904BF2FB0F0BDEC
:102AC0008DF80000684688472FB0F0BDAA490088FD
:102AD0004FF6FF75A1F87803A948ADF8B450012668
:102AE0002670B0F84A00A4F85803ADF80150022748
:102AF0008DF800706A4600215020FFF7A7FA0020E9
:102B000084F8520384F85A0307218DF8B01003218A
:102B10008DF894108DF895008DF89870ADF896505A
:102B2000ADF89A50ADF8A2602CA9CDE929108DF826
:102B3000AC008DF8AD6025A80AF072FC2FB0F0BD96
:102B400010B58F4CA6B0B4F85410A1F57F42FF3AEF
:102B500008BFEC2012D00088ADF8010002208DF8EB
:102B600000006A4600215020FFF770FA012084F827
:102B7000490030F0C1FE0020A4F844007E49C96934
:102B8000002904BF26B010BD8DF8940025A8884701
:102B900026B010BDF0B5774D04460027287883B0E5
:102BA000A5F12806012828D0022804D0032808BF50
:102BB0002F7003B0F0BD95F84E034FF4D371401E53
:102BC000C0B285F84E0310FB01F205F5D471A81CC4
:102BD0000EF03BFA2F70316895F84F232078636828
:102BE000002904BF03B0F0BD8DF800208DF801006E
:102BF00068460193884703B0F0BD207860B12F701C
:102C0000B1692078002904BF03B0F0BD8DF8000041
:102C10006846884703B0F0BD012085F8520340F0B4
:102C2000A1FFC5F8540303B0F0BD70B5544B044682
:102C3000012293F882000025012808BF257004D0E6
:102C400002281ABF48782070227093F88300012868
:102C500008BF65700DD0022808BF627009D0032834
:102C600008BF022026D004281ABF0878607003200D
:102C700020D0A5700022E570104603EB000C401C2C
:102C80009CF884C0C0B2624492B20328F5D3002AF3
:102C900014BFB3F884004888A08014BF93F886005E
:102CA0000879A071E571257204F1090032F096FFF0
:102CB000E57370BD6070DCE72DE9F04104460C2A35
:102CC0000CBF01260026002E51D011F8010B0D4635
:102CD00000F007026270C00800F00F020009A27045
:102CE000E07000272748A780A771007818B32878DC
:102CF000082100F0BAFB80466878082100F0B5FB97
:102D00008044A878082100F0B0FB4044022838BF76
:102D100000261BD32878082100F0A7FB804668789E
:102D2000082100F0A2FB8044A878082100F09DFB58
:102D30004044022804D92888A080A878A07105E022
:102D400011480188A1808078A071677015F8030F81
:102D5000207255F8010FC4F80900A888A4F80D00E6
:102D6000A87900F07F01E171C0092070E773304657
:102D7000BDE8F08160DD002038DD002020DF440068
:102D800064DC002083050020A00500202DE9F0432D
:102D9000FF4D044693B02878A5F1280801280BD0F0
:102DA00094F822000127FB4E4FF6FF7900287CD0D3
:102DB00095F85A0388B3D6E0207800281CBF13B0DA
:102DC000BDE8F083D8F81410002904BF13B0BDE8A3
:102DD000F083608B06280CBF01200020002804BF70
:102DE00013B0BDE8F083207902281CBF13B0BDE802
:102DF000F0836088ADF8000094F824008DF802009C
:102E0000E088ADF80400E069808840BAADF80600BB
:102E10006846884713B0BDE8F083FFE7B6F8540072
:102E2000484542D085F85A736088A5F85C03DA48B3
:102E30006168C0F88613A168C0F88A13A189A0F858
:102E40008E1304F12C016846FFF7EFFE94F824007E
:102E5000D24A8DF808000020127805F55A71072330
:102E60003AB1012A2CD00C23022A18BF032A52D0CF
:102E700077E09DF803009DF8022042EA00109DF8DB
:102E8000012042EA80009DF8002042EA40000870DC
:102E90009DF807209DF8040062F39F1048709DF88C
:102EA00008008870BDF8090000E05CE0A1F80300AC
:102EB0009DF80B0048719DF80F008871184650E08E
:102EC0009DF803009DF8022042EA00109DF80120C1
:102ED00042EA80009DF8002042EA400008709DF818
:102EE00004209DF8070002F00F0242EA80104870AB
:102EF0009DF8080088709DF80900C8709DF80A00C8
:102F000000F00F0008714FF0000048719DF80F00AD
:102F10008871184625E09DF803009DF8022042EADA
:102F200000109DF8012042EAC00001F8010BBDF835
:102F3000040021F8020B9DF8060001F8020B9DF831
:102F4000080001F8010CDDF809000860BDF80D006B
:102F500088809DF800009DF8072042EAC010887123
:102F6000184685F874032078002802BF86F88B7015
:102F700013B0BDE8F08301281ED0022804BF13B0AF
:102F8000BDE8F08303281CBF13B0BDE8F0832046E2
:102F9000618B002904BF13B0BDE8F083C1690978D3
:102FA000072974D00A291CBF13B0BDE8F08313B001
:102FB000BDE8F04300F06ABAD8F80400002804BF66
:102FC00013B0BDE8F08304F12C010EA8FFF72DFE2D
:102FD0006088ADF800006068CDF80200A068CDF808
:102FE0000600A089ADF80A00E089ADF80C00206960
:102FF000CDF80E006069CDF81200208BADF81600F8
:10300000608BADF81800E069079094F824008DF803
:10301000200094F825008DF8210040F0A3FD0990D0
:1030200094F820008DF8280094F821008DF82900EC
:1030300094F82300002818BF01208DF82A0094F886
:1030400026008DF82B0094F827008DF82C00B4F89A
:103050002900ADF82D0094F82B008DF82F009DF875
:1030600039008DF830009DF838008DF83100BDF83A
:103070003C00ADF832009DF83E008DF83400D8F8E1
:1030800004106846884713B0BDE8F083FFE7B6F840
:103090005400484504BF13B0BDE8F08395F87503AC
:1030A00000281CBF13B0BDE8F08330F0F1FA0446ED
:1030B00096F846003A494143002030F0FCFF204496
:1030C000C5F8780385F8757313B0BDE8F08330B5A3
:1030D000314D044693B0686A002804BF13B030BD78
:1030E00004F12C010EA8FFF7A0FD20788DF8000058
:1030F0006088ADF80200211D01A832F077FDE0895B
:10310000ADF80E0004F1100104A832F06FFD608BE1
:10311000ADF81A00E069079094F824008DF82000BB
:1031200094F825008DF8210040F01CFD099094F8DA
:1031300020008DF8280094F821008DF8290094F8DB
:103140002300002818BF01208DF82A0094F82600DB
:103150008DF82B0094F827008DF82C00B4F8290086
:10316000ADF82D0094F82B008DF82F009DF8390054
:103170008DF830009DF838008DF83100BDF83C0026
:10318000ADF832009DF83E008DF83400684609E045
:1031900060DD002064DC002038DD0020A305002075
:1031A00040420F00696A884713B030BDFD49096A83
:1031B000002908BF704708472DE9F04117468846A7
:1031C000B0E83410F749A6B01E46A1E83410B0E8C4
:1031D0001C10A1E81C10D0E90020C1E900204FF428
:1031E0005F72F149F1480DF072FF404609F04EFB65
:1031F00031463846FEF7CDFB314640460AF031FBFA
:103200000024CDF801406A464FF48671E84830F05A
:103210004FFA9DF80410E748252906BF01210170E7
:10322000047026B0BDE8F0812DE9F04FDD4E8BB083
:103230003068002804BF0BB0BDE8F08F0AF026FB11
:10324000DA4C00252078012818D194F85203A8B14F
:1032500040F088FCD4F85413411AB4F8500300EB42
:103260004002C2EBC010B1EBC00F07D32570B169AB
:10327000002019B18DF800006846884794F875035E
:103280000226012808D130F003FAD4F87813081A7E
:103290000028D8BF84F87563207800281CBF0BB0C5
:1032A000BDE8F08F94F87503DFF80C8301274FF029
:1032B000030902283BD184F87553B8F85410A1F5DE
:1032C0007F40FF3833D084F800908DF8005098F894
:1032D000490000280CBF8020C0208DF801008DF827
:1032E00002508DF80350B8F844008DF80850010AD8
:1032F0008DF804108DF805008DF80960B8F84A00C3
:10330000ADF80A000620ADF816006846CDE90605BE
:103310008DF80C508DF820508DF8217002A80AF01D
:103320007FF8207800281CBF0BB0BDE8F08F94F820
:103330005A03DFF870A2D8B384F800900A208DF801
:103340001C0094F8742304F55A710DF11C0B0DF157
:103350001D000DF035FE84F85A538DF800908DF85D
:103360000160B4F85C03ADF80200DAF8860301905E
:10337000DAF88A030290BAF88E03ADF80C0094F8DC
:1033800074038DF81470401C8DF81550ADF80E00C4
:103390008DF816508DF81850CDF810B08DF81750E4
:1033A0008DF8197068460AF03BF82078002800E094
:1033B00003E01CBF0BB0BDE8F08F94F84E0300286B
:1033C00050D08DF80070A0788DF80100A088ADF87D
:1033D0000200DAF82E100191DAF832100291BAF8F0
:1033E0003610ADF80C10218AADF80E107349049117
:1033F00094F8A31101F001018DF8141094F8A411B0
:103400008DF8151094F8A5118DF8161094F8A611E2
:10341000012918BF00218DF81710B8F84A200021A3
:10342000824213D14FF6FF7290420FD09DF80400F4
:1034300002280BD1BDF80600904207D0FEF7B7FA7C
:1034400000281BBFC0890028012100218DF8181019
:103450008DF8195094F8A20184F84F03267068463D
:1034600009F0DEFF0BB0BDE8F08F034600200246F6
:10347000002998BF704723FA02FC0CF0010C521C83
:103480006044D2B2C0B29142F5D870472DE9F04FF6
:10349000074600794A4EADB0022840F0DF80F86957
:1034A0003378411CB87EDFF81CA1401EC2B24148EF
:1034B000EC460DF1090800784FF0000933B1012BFB
:1034C00055D0022B18BF032B6BD0C7E0072A14BFBF
:1034D00000240124002C49D00A7802F001038DF861
:1034E0000030520802F003038DF80130920802F018
:1034F0000F0312098DF802308DF8032091F801B006
:10350000ADF804904D1C8DF80690C0B106215846C8
:10351000FFF7ABFF002808BF002414D0062158464F
:10352000FFF7A3FF01280AD8BAF80000ADF804009D
:103530009AF802008DF806008DF8019003E00BF078
:103540003F008DF804004FEA9B108DF80700687863
:103550008DF80800404632F041FB6888ADF809005C
:1035600028798DF80B0068798DF80F0072E0072A32
:1035700014BF00240124002C6CD00A7802F001034F
:103580008DF80030520802F003038DF801309208E4
:1035900002F00F0312098DF802308DF803204D1C44
:1035A00012E053E038DD002020DF440060DD002021
:1035B000200000088305002064DC002072DD00206C
:1035C000A3050020A005002091F801B0ADF80490FB
:1035D0008DF80690002808BF0BF00F001BD00321C8
:1035E0005846FFF742FF002808BF002415D00321EA
:1035F0005846FFF73AFF012888BF0BF007000AD8AA
:10360000BAF80000ADF804009AF802008DF8060040
:103610008DF8019001E08DF804004FEA9B108DF8C1
:10362000070068788DF80800404632F0D7FA6888BD
:10363000ADF809009DF80A0000F00F008DF80A00AF
:103640008DF80B9068798DF80F0003E06046FFF766
:1036500033FB0446002C18BF012000D100200028B5
:1036600004BF2DB0BDE8F08F29AC04AA00214FF4AF
:103670008870FEF7E0F9F0B1FF22092120460DF035
:10368000A0FD01A807900020844606907078059060
:103690004FF0000A96F802B0F078049005980DF10A
:1036A000A40E56465546544652465146D146002829
:1036B0004BD99EB90AE0DDF811002990DDF815001C
:1036C0002A909DF819008DF8AC00DAE707980826D3
:1036D00010F80A500AF1010000F0FF0A05F0010895
:1036E000701E6D080023C6B2BBF1000F15D922B9B8
:1036F000601C1EF80410C4B2082201F00100490841
:10370000521ED2B218EA000F1CBF0CF1010000F0EB
:10371000FF0C581CC3B25B45E9D309F1010000F06E
:10372000FF0905988145C4D3069848B104986044C0
:10373000411E049891FBF0F0ACEB000000F0FF0C90
:10374000BCF1060F28BF012000D20020002804BFD2
:103750002DB0BDE8F08F594C94F8B1000F282DD052
:10376000FE8897F828503046FEF721F9F0B301683B
:1037700004914168059181680691C1680791018AA9
:10378000ADF82010E1694E4A401A82FB00208210F9
:10379000A2EBE07000EBC000420001F112000DF05E
:1037A00054FCE069049901600599416006998160C3
:1037B0000799C160BDF82010018249E0E0699DF8D9
:1037C0000020017B62F300010173BDF80410418009
:1037D0009DF8061001719DF80120417962F3020104
:1037E00041719DF8022062F3C60100E018E04171CA
:1037F0009DF8032062F3C7114171DDF80910C0F88C
:103800000610BDF80D1041819DF80810417394F821
:103810004110C1EB01118900C1812DB0BDE8F08FCD
:10382000208CE169401E00EBC000420001F1120053
:103830000DF00BFC2349E0690A6802604A684260A7
:103840008A688260CA68C260098A0182E06906806B
:10385000E0699DF80010027B61F300020273BDF87D
:10386000041041809DF8061001719DF801304179E6
:1038700065F3430263F3020141719DF8023063F383
:10388000C60141719DF8033063F3C7114171DDF842
:103890000910C0F80610BDF80D1041819DF8081000
:1038A0004173027394F84110C1EB01118900C18189
:1038B0004FF6FF7101822DB0BDE8F08F64DC00206F
:1038C000398EE338580A01202DE9F0410E460746AB
:1038D00014464FF49471F8480DF09DFCF64D042108
:1038E000012285F8447085F8456085F8291085F82F
:1038F00028202A800A2028874FF6FF73AB852823CB
:103900000F2E0CBF4FF03C0C4FF4B47CA5F826C032
:103910004FF0340C85F824C04FF01E0C85F823C0FE
:1039200085F831304FF00F0C85F832C04FF0FF0CA6
:1039300085F834C07DD1002F18BF012F79D085F8CC
:1039400020304FF0020385F821304FF0000385F856
:103950003B304FF0FE0C85F83CC085F83D0085F803
:103960003E1085F83F3085F8400085F83A20A18860
:10397000A980A079A871207AE871608928812078CF
:1039800085F81101607885F81201A07885F8130197
:10399000E07885F81401E069E860226A2A61626AC9
:1039A0006A61A26AAA61E268C5F818212269C5F8AD
:1039B0001C216269C5F82021A2694FEA0111C5F8EE
:1039C00024210DF028FCA879C10028690DF023FC02
:1039D000E879010168690DF01EFC95F8110100EB12
:1039E00040008100D5F818010DF015FC95F8120182
:1039F000C100D5F81C010DF0ECFB95F81301C0EBEC
:103A0000C0008100D5F820010DF005FC95F81401E7
:103A10004101D5F824010DF0FEFB112E18BFBDE8C1
:103A2000F08128894100A869BDE8F041FF220DF02E
:103A3000C8BB85F8200085F8211086E770B59E4D3B
:103A4000A626002405F1700030F0E0FFEA6E002A9F
:103A500008BF70BD2146304690470020E86670BD23
:103A600070B5954C78B10546002604F1700030F031
:103A7000CDFFE26E002A08BF70BD31462846904750
:103A80000020E06670BD8D48606794F8310000EB5F
:103A90008000410004F17000BDE8704030F08EBF3E
:103AA0002DE9F047844D07464FF00008A8790E46EF
:103AB0004446002884BF4FF002094FF0040A13D98E
:103AC0002A6932F83400B8420AD109EBC400105C0C
:103AD000B04205D10AEBC400105830F047FF30B1B6
:103AE000A879641CA042EBD84046BDE8F0874FF0AF
:103AF0000108F9E72DE9F0416F4D06460027A88837
:103B00003C46002888BF4FF00C0815D9E86808EB40
:103B10000411405830F02AFF70B9E86800EB041037
:103B20000088B04203D1E86800EB041704E0601C91
:103B300084B2A888A042E9D83846BDE8F0812DE9D2
:103B4000F0410C46054603F04CF907465A4800265A
:103B5000267090F82E00B8B92846FFF7CBFF050075
:103B600012D06F8800213846FFF79AFF00281CBF4B
:103B70000420207008D101213846FFF791FF00286A
:103B800018BF032003D020703846BDE8F081687A62
:103B900010F0200F0CBF26700120F4D1F4E72DE9BE
:103BA000F05F8346DDE90A878A46DDE90C040821D7
:103BB000002501EB88011E46914688425CD3FC201B
:103BC000207058462EF02CFF607058462EF02AFFC9
:103BD000A07050462EF024FFE07050462EF022FFD9
:103BE00020714FEA091040EA16606071300CA07134
:103BF000300AE071267209250026B8F1000F88BF4F
:103C00004FF0000938D91FB337F836002EF008FFFF
:103C10006055681C85B237F836002EF003FF6055FA
:103C2000681C81B207EBC60082780379D20142EAB0
:103C30000312437942EAC302837942EA8302C379D9
:103C40001A436254491C89B2C0786054481C0EE083
:103C5000681C80B204F8059004F80090401C80B203
:103C600004F80090401C80B204F80090401C85B21B
:103C7000701CC6B24645C6D32846BDE8F09F0E4923
:103C800091F82E1000291CBF0020704710B5FFF7D7
:103C900031FF04001CBF607A10F0020F09D0608869
:103CA0000021FFF7FDFE58B160880121FFF7F8FE03
:103CB00030B1002010BD0000DCE000203D3A4000A3
:103CC0000120F7E72DE9F041FF4F0546C4B097F812
:103CD0002E001446884600281CBF44B0BDE8F08181
:103CE0002846FFF7CCFF002808BFA52604D0F86EB1
:103CF000002818BFB3260FD0FF224FF48671684604
:103D00000DF05FFAADF802508DF808806946304634
:103D1000A04744B0BDE8F081A7F868506426FC666F
:103D200003F05FF804A9CDE9026100240146009484
:103D30002346424601942846FFF731FF04AA314644
:103D40000AF084FE06461DA92846FFF7F8FEDF4963
:103D500004ABCDE9004132469DF8741004F076FFC3
:103D600044B0BDE8F0812DE9FF5F8B46DDE9131417
:103D7000DDE91156DDE90FA70020DDF8388099460E
:103D80000C293CBF04B0BDE8F09F002020700098D3
:103D90002EF046FE607000982EF044FEA07058464B
:103DA0002EF03EFEE07058462EF03CFE2071029848
:103DB0002EF036FE607102982EF034FEA07148EAB3
:103DC0000910E07150462EF02BFE207250462EF066
:103DD00029FE607267F31F15A5723001E07204B00E
:103DE0000C20BDE8F09F2DE9F84FB74F814688467B
:103DF00038690025D0F804A030F006FE0090B879AC
:103E000000244FF0040B002820D9386930F8341012
:103E1000494505D1022101EBC401415C414505D072
:103E20000BEBC406805930F0A1FD08B125460DE02A
:103E300038698159504630F0ADFD18B138692546D2
:103E400050F806A0B879641CA042DED838690BEBA4
:103E5000C50220F835900220396900EBC50001F851
:103E60000080388FC0EB001000EB8001009800EB61
:103E7000C10039698850BDE8F88F2DE9F047DFF8B7
:103E8000488289460746B8F80460D8F80C500024E8
:103E9000B8F80400A04203D9E86830F067FD60B3C9
:103EA000B8F80400B04298BFBDE8F087B9F1000F40
:103EB0000DD0D8F80C00022101EB0611455A002163
:103EC0002846FFF790FF01212846FFF78CFF02F0FC
:103ED00093FFB84204BF4FF6FF7005F077F810214A
:103EE000D8F80C0001EB06110144A21B00EB0610F0
:103EF000BDE8F04712010DF01CB92888B84208BF90
:103F00002646641C1035C3E7F0B50C686E4FA3B0AD
:103F1000A0B1E9281CD04FF6FF72214602F0B2F89A
:103F20006B48F86497F8230023B000EB8000410051
:103F300007F14800BDE8F04030F040BD02F06EFCF3
:103F400000EB8000810004F10C0030F037FDE7E762
:103F5000A0880021FFF791FFE0796426002814BFB4
:103F60000825002597F82800002818BF45F004050B
:103F700002F037FF0146002007AA03900490CDE924
:103F80000562A27997F832300093CDE90102E28B05
:103F9000A0882B46FFF7E7FE07AA31460AF056FD38
:103FA0004C4920ABCDE900310246209407AB0021FB
:103FB0004FF6FF7004F04AFEB2E72DE9F043424E9F
:103FC0000446A5B006F1480030F0EAFC4FF00008C6
:103FD00080B100F083F8010004BF25B0BDE8F08394
:103FE0004C6081F8088025B006F15800BDE8F04328
:103FF00030F020B8E0796427002814BF0825002598
:104000004FF6FF798DF88080207F401C207796F84E
:10401000280050B145F00405A088FFF730FE20B11C
:10402000A08820A9FFF78BFD81463088E083308887
:10403000401C308002F0D5FE07A9CDF80C80CDF8E9
:104040001080CDE90571A17996F83220CDE90028DC
:104050000291B4F804C00146E28B2B466046FFF79C
:1040600082FE07AA39460AF0F1FC1A4921ABCDE9D4
:1040700000310246219407AB9DF88010484604F0B9
:10408000E5FD25B0BDE8F08338B513482FF0C4FF37
:10409000050008BF38BD287A10B1012804D00FE010
:1040A0006868FFF78AFF0BE06C68E0790090A388EE
:1040B000A2796188208800F06CF8204631F092FDEA
:1040C0000020686038BD0000DCE00020613A40005C
:1040D00089404000093F400034E100202DE9F84FBD
:1040E00000252E464FF00408FE4FA946002097F801
:1040F0001121002A88BFD7F8181108D900EB400316
:1041000008EB8303CB5823B1401C8242F6D835BB61
:1041100004E000EB400001EB8005F8E707F15800F0
:104120002FF07AFF5FEA000A19D09AF8080010B160
:10413000012805D011E0DAF80400FFF73EFF0CE09B
:10414000DAF80440E0790090A388A2796188208899
:1041500000F01FF8204631F045FDCAF80490701CAD
:10416000C6B2022E01D2002DC0D02846BDE8F88F7D
:10417000DC4A92F845000F2818BF7047DA48D0642F
:1041800092F8230000EB8000410002F1480030F07B
:1041900015BC2DE9F04F9DB01D4616460F468046D2
:1041A000269CFFF76CFD002804BF1DB0BDE8F08F12
:1041B000DFF8309399F84500112829D209F1480019
:1041C00030F0EEFB20B399F84500112824BF1DB054
:1041D000BDE8F08FFFF782FF5FEA000C04BF1DB05F
:1041E000BDE8F08F002299F84500112855D299F8C2
:1041F00012A10020BAF1000F4FD9D9F81C114FF0CD
:10420000020B062331F830E0BEF1000F42D121E06D
:104210004FF0640903A80094CDE901902B46324683
:104220003946404601F050FF03AA49460AF00EFC09
:1042300004461CA94046FFF782FCAC4B0021CDE9A7
:10424000001303AB22469DF8701004F0FFFC1DB074
:10425000BDE8F08F0BEBC00E31F80EE0BEF1000FA1
:1042600018D14FF0040E0EEBC00E31F80EE0BEF187
:10427000000F0FD103EBC00E11F80EE0BEF1000FDE
:1042800008D14FF0070E0EEBC00E11F80EE0BEF194
:10429000000F1AD0401C8245B4D8002A04BF1DB0BC
:1042A000BDE8F08FA2F80080578096719580D47198
:1042B0000120CCF804208CF808001DB009F158004A
:1042C000BDE8F04F61462FF0B5BE01EBC002E4E758
:1042D000F8B50D46064602F09AFD044602F081FD4F
:1042E00001462B46002230460094FFF752FFF8BDEE
:1042F000704780687B4A017F92F82220914200D863
:104300005BE601464FF6FF72A52001F0BBBE2DE92A
:10431000F047DFF8D0C10F4601469CF814514FF02A
:104320000008089EDCF824C14046002D88BF042404
:1043300013D90CEB4019D9F80090B9F1000F08D04F
:1043400004EB40193CF80990894502D14FF001086F
:1043500003E0401CC0B28542EBD800242046002D6B
:104360002BD90CEB4019D9F80090B9F1000F1DD0F2
:10437000401CC0B28542F4D8FCB1A180A771E271A3
:1043800000202660A3602077E0835948C4E9040434
:10439000B8F1000F0DD002F041FA00EB800081006F
:1043A00004F10C00BDE8F04730F008BB0CEB401402
:1043B000E2E72046BDE8F047FFE5B446BDE8F04738
:1043C0004FF6FF72B4206047464A30B492F8451069
:1043D00000250F2902BF002030BC70470021B2F831
:1043E00008C0BCF1000F84BF4FF6FF7493690AD96F
:1043F00033F81120A24203D0824201D1012502E00C
:10440000491C8C45F4D8284630BC70472DE9FF5F25
:104410000821DDE90E6ADDF84080DDE91304DDE9FD
:1044200011970AEB0802002501EB82019B468842A6
:104430007ED3FD20207000982EF0F2FA6070009874
:104440002EF0F0FAA07001982EF0EAFAE0700198D0
:104450002EF0E8FA20714FEA0B1040EA1620607146
:10446000A67102982EF0DCFAE07102982EF0DAFACA
:10447000092500262072BAF1000F27D939F8360035
:104480002EF0CEFA6055681C85B239F836002EF051
:10449000C9FA6055681C81B209EBC60082780379BD
:1044A000D20142EA0312437942EAC302837942EA23
:1044B0008302C3791A436254491C89B2C07860549C
:1044C000481C85B2701CC6B2B245D7D80026B8F1D8
:1044D000000F32D937F836002EF0A2FA6055681C6A
:1044E00085B207E0DCE000208940400071414000D7
:1044F000F342400037F836002EF094FA6055681CFD
:1045000081B207EBC60082780379D20142EA031236
:10451000437942EAC302837942EA8302C3791A43A8
:104520006254491C89B2C0786054481C85B200E0CE
:1045300003E0701CC6B2B045CCD804B02846BDE834
:10454000F09F2DE9F047DFF8ACA600248946BAF8C1
:104550000450DAF80C70804626460C70BAF8040055
:10456000A04203D9F86830F001FAD8B1BAF80400D3
:10457000A84206D8A0428FBF2546451E012089F8D3
:1045800000001022AE421CD2DAF80C0002EB061238
:1045900000EB06111044A5EB06024FEA02120CF0E4
:1045A000C8FD1BE03888B8F80010884208BF2546CF
:1045B000D8F80C00F9688842B8BF661C641C103734
:1045C000CCE70BD902EB0511DAF80C00761E01449A
:1045D000721B00EB051012010CF0ABFDDAF80C00B9
:1045E00098E80E1000EB061080E80E10BDE8F0878A
:1045F0002DE9F047DFF8FC850646002498F807000F
:104600000C27254600281AD9D8F8140000EB05110C
:104610000988B14205D107EB0511405830F0A6F9E1
:1046200040B1681C85B298F80700A842ECD8002C6D
:104630007ED104E0D8F8140000EB0514F7E7B8F8D1
:1046400004000025002873D9D8F80C0007EB0511E9
:10465000405830F08BF900287ED1D8F80C0000EBE0
:1046600005100088B04270D1D8F81420D8F80C009A
:104670004FF0000998F8071000EB0515D2F80CA0D0
:104680004C464846002988BF2B880DD902EB001CF8
:10469000BCF800C09C4502D102EB001403E0401CB2
:1046A00080B28142F2D83CBB0026002920D9D8F83C
:1046B00014002A8800EB06110988914205D007EB07
:1046C0000614005930F052F908B1B14610E0D8F89C
:1046D00014000159504630F05DF920B1D8F81400AB
:1046E000B14650F804A098F80700761CB042DED816
:1046F000D8F8140000EB09142888208068886080AE
:10470000A888A080697A607A61F300006072E98805
:10471000E1802A7A217A62F3030121722A7A12094E
:1047200062F307112172697A490861F3410000E0E0
:1047300012E020F004006072E968E160697AC9085B
:1047400061F3C400607207E0FFE7681C85B2B8F847
:104750000400A8423FF678AF2046BDE8F087002964
:1047600008BF70472DE9F04F0D6880464E688C6891
:10477000DFF880A49FB015F0FF004FF6FF774FF0F1
:10478000000915D001281CBF1FB0BDE8F08F002C18
:1047900004BF1FB0BDE8F08F4FEA154B608883451A
:1047A00018BF002E7ED0E06830F0E0F8C8B374E0A7
:1047B000B8F1E90F30D1280CB8421CBFBAF80C018F
:1047C000002829D04FEA1544C5F307212046FFF7FA
:1047D0000AFB00212046FFF750FBBAF80C210AF132
:1047E000800102A80CF073FCADF86E709DF80A0011
:1047F0008DF86C008DF86D90CDF87090FE481BA977
:10480000CDE90010CDF87490BAF80C2102AB00216C
:104810004FF6FF7004F01AFAAAF80C911FB0BDE829
:10482000F08FFFE794E80F008DE80F009DF8090076
:10483000290CADF8021040F00200290A61F345107E
:1048400020F0010040F004008DF8090030F0DCF8A1
:104850000146BAF82600C0EB001000EB800001EB27
:10486000C0000390684604A9FFF76BFE054602F0FE
:10487000C3FA298888420AD102F0C9FA297A01F0DC
:104880000F01884204BF47F6FF7004F09FFBADF8AC
:104890000070ADF80270CDF80C905846FFF7A8FEF6
:1048A000A04200E011E01CBF002801F0A6FC86F841
:1048B00008909AF829001FB000EB8000410006F133
:1048C0000C00BDE8F04F30F079B8FFF791FE0746D5
:1048D000B8F1000F13D0B8F1E90F04D1C5F30721E7
:1048E0005846FFF780FAE06830F040F8A7421EBF54
:1048F000002FF86830F03AF8AAF80C9108E020464A
:1049000001F07BFCA7421EBF002F384601F075FC6A
:10491000002E04BF1FB0BDE8F08F86F80890C6F8DF
:1049200014909AF829001FB000EB8000410006F1B6
:104930000C00BDE8F04F30F041B82DE9F04164279C
:10494000A4B0002819BF4FF0FF08002924B0BDE82B
:10495000F0810D684E688C68E92803D1E1B2B0B2ED
:10496000FFF741FAC4F30740FF2804BF24B0BDE8B5
:10497000F08102F036FA0021A04BCDE9033107AAFD
:10498000CDE90572320C0092C4F30743CDE9013141
:10499000C4F307232C0C0246A9B22046FFF736FDCC
:1049A00006462046FFF76BF9002804BF24B0BDE897
:1049B000F08107AA394630460AF048F804468DF8D7
:1049C0008A80280C23A9FFF7BAF89DF88C108C4B2D
:1049D00020AACDE90023ADF884008DF8881007AB3C
:1049E000224604F033F924B0BDE8F0812DE9F04F00
:1049F0008468A5B0002C04BF25B0BDE8F08F4FF04F
:104A00006409002637462088FFF7F2FDDFF8E4A1AD
:104A10000500B34608BFB4F8008016D0687A10F0DD
:104A2000040F04BFB5F80280C0F340170DD0C4F8DE
:104A300014B09AF8290000EB8000410004F10C004A
:104A40002FF0BCFF25B0BDE8F08F9AF845000F2885
:104A500014BF608802F0C5F9239055B1687AC0F39D
:104A6000C10030B1022808BF0E2602D0032808BFBB
:104A70000F2602F0CCF90096CDE904B907A9CDF8CC
:104A80000CB00691CDE901B0A079BAF8002000F091
:104A900008032088239901F046FBBAF8001007AA02
:104AA000491CAAF80010494609F0D0FFADF88280F1
:104AB0009DF81E108DF880108DF881700121CDE9D0
:104AC000214521724C4A20A9CDE90012024607ABCC
:104AD0003946404604F0BAF825B0BDE8F08F2DE91C
:104AE000FF4F81B00446DDE912CADDE90F76DDF83B
:104AF00044B0DDF8388003F00303BCF1000F08BFB9
:104B000001254BD0E188A1F57F40FF381BBFA1F5FF
:104B1000FE40B0F1FF0001250025B4F80490607A52
:104B200091451CD110F0010F19D0C0F3C10999456E
:104B300011D194F80890B6EB191F0AD1414506D15E
:104B400009F00F01B9428CBF012500251EE01DD9D7
:104B50001AE01BD218E010F0180F15D016E010F074
:104B6000010F11D0914504D8A2EB0901B1F5004F16
:104B700006DB4A4506D2A9EB0201B1F5004F01DB85
:104B8000012100E0002109B1012503E0D5B3BCF10A
:104B9000000F03D040F001006072A280A4F80680EC
:104BA000207ABBF1000F67F3030066F30710207251
:104BB00002986080607A63F3C4006AF34510607203
:104BC00027D040F00200607269462046FFF7B9FC2A
:104BD000064602F011F9318888420AD102F017F92D
:104BE000317A01F00F01884204BF47F6FF7004F0EC
:104BF000EDF908E0DCE000205F47400004E200201F
:104C00003B49400005E04FF6FF70208060800021A6
:104C1000E1602FF0F9FE0146FE48C08CC0EB0010A9
:104C200000EB800001EBC000E06005B02846BDE865
:104C3000F08F70B5F74E0024B088002888BF0C258F
:104C40000CD9F06805EB041140582FF08FFE08B125
:104C5000002070BDB088641CA042F2D8012070BD55
:104C60002DE9F74FDFF8AC9307460026D9F814007A
:104C70008A463446D0F80C8099F80700002888BF8F
:104C80004FF00C0B1FD9D9F8140000EB0411098860
:104C9000B94205D00BEB041540592FF067FE08B15F
:104CA000264610E0D9F81400415940462FF072FE14
:104CB00020B1D9F81400264650F8058099F807006D
:104CC000641CA042DFD8D9F8140000EB061402F0EF
:104CD0009EF82780A4F802A00021A180617A21F02B
:104CE000010247F6FF71E180217A60F3030160F36E
:104CF00007112172029922F01E0061F345106072C3
:104D00002FF082FE0146B9F82600C0EB001000EB40
:104D1000800001EBC000E06003B02046BDE8F08FEA
:104D20002DE9FF4FA3B00746DDE9366590461046F2
:104D3000DDF8D4B0DDF8E090FFF75AFC044602F04D
:104D400050F8404503D04046FFF73EFB00B101203C
:104D5000079001204FF0000A20909CB1C14507D177
:104D6000607A10F0010F09D0A1883098814205D1F6
:104D7000C14505D0A1883098814201D0012000E0D2
:104D80000020209000200B90012F14D08CB3627A69
:104D9000A188309812F0010F0BD0814203D8421A3B
:104DA000B2F5004F05DB884224D2081AB0F5004F57
:104DB00020DB01201FE0B4B1627AA188309812F0A4
:104DC000010F0BD0814203D8421AB2F5004F05DB28
:104DD000884205D2081AB0F5004F01DB012000E03F
:104DE000002080F0010A48462699FEF759FE0B90F4
:104DF0000FE003E0002090F0010F08D1484626990B
:104E0000FEF74EFE002808BF4FF0000A01D04FF019
:104E1000010ABAF1000F1CBF27B0BDE8F08FFF2ECA
:104E20003CBF701CC6B2BBF1000F1CBFABF1010050
:104E300000F0FF0B3499399808444FF6FF7188420F
:104E40002CBF4FF6FF7080B23490339800281CBFFF
:104E5000681CC5B2079800281CBF27B0BDE8F08FBA
:104E60002CB949464046269AFFF7FAFE044669489F
:104E70004FF0000A8088002810D96648C1680C20CD
:104E800000EB0A1008582FF071FD08B1002006E071
:104E900060480AF1010A80885045EED8012020B10F
:104EA000329808F026FF2844C5B201222699002F27
:104EB00014BF0120002002950591CDE9030234982A
:104EC000CDE9000649462046329B309AFFF707FE9F
:104ED0002099069088431CBF012020900B990698CA
:104EE00008421AD04B484FF0000A8179002984BF4C
:104EF0004848006911D930F83A204A4509D12FF0C5
:104F000083FD411E43480269042000EBCA00115092
:104F100003E00AF1010A5145EDD80698F0B301F01B
:104F20006BFF404508D1DDF8D0A001F07BFF504574
:104F30001CBF504604F04AF8C14543D03398009056
:104F40004846FFF755FB040005D149460846269A16
:104F5000FFF786FE04462F484FF0000A818800299B
:104F600010D92C48C1680C2000EB0A1008582FF00B
:104F7000FDFC08B1002006E026480AF1010A8088FD
:104F80005045EED8012030B1329808F0B2FE0099B9
:104F90000844C0B200900CB1002200E012E0269953
:104FA000381C18BF0120009B05910293CDE9030234
:104FB00001213998CDE9000149462046329B309ABB
:104FC000FFF78DFD079800281CBF27B0BDE8F08FC4
:104FD000642021900020009002204FF6FF7A22905A
:104FE00001F0FFFE01462498814203D0FFF7ECF95F
:104FF00000287AD08FB3DFF81CB000269BF814018C
:1050000000289CBF27B0BDE8F08FDBF8240100EB3F
:10501000461501E0DCE000202968B9B1042101EB6C
:105020004611405A404511D10020019005F10C0075
:105030002FF0ECFCD5F800C0BCF1000F06D0A98819
:105040004A46AB680198E04700202860701CC6B251
:105050009BF81401B042D8D8C9E0FFE706980028B1
:1050600004BF27B0BDE8F08FCDF8048024980590E8
:10507000DFF8D0B431980025DDF8C0900490039596
:105080009BF81301A84600289CBF27B0BDE8F08F0D
:10509000C8EBC8060C2000EB8600DBF8201102905C
:1050A00008442FF07DFC50B90821DBF8200101EB0A
:1050B0008601415C002908BF00EB860530D0DBF893
:1050C0002011019831F82620824229D1042000EBDA
:1050D0008600085A48450ED1C8EBC8034FF01400AB
:1050E00000EB83000A58002A00E03DE004BF01EB1A
:1050F00086020A507BE004D8A9EB0002B2F5004F0B
:1051000006DB814506D2A0EB0900B0F5004F01DBBC
:10511000012000E0002018B1029808442FF076FC2E
:1051200008F1010000F0FF089BF813014045AFD8DB
:105130000398E8BBE5B3019828809BF84500112847
:1051400024BF05986880A5F804900498A871FE48CB
:10515000C5E904059BF8290000EB8000410005F13A
:105160000C002FF02BFC42E00F2E84BF27B0BDE8CF
:10517000F08FBBF1000F19BF2098002827B0BDE8C1
:10518000F08F07A82199CDE90510CDE90365349882
:105190003299CDE90010DDE930232498CDF808B02C
:1051A0004146C7B100F0BFFF0090012F17D000E0CB
:1051B0001DE0319810F0040F19D0012F0FD0249862
:1051C000FEF798FC04000ED0607AB4F802A0C0F399
:1051D000401022900BE0FEF7C6FD0090E7E7249810
:1051E000FFF706FAEEE7002F18BFDDF890A0009851
:1051F000002804BF27B0BDE8F08F07AA219909F065
:1052000025FC054677B9AAF57F40FF380AD08C2DDA
:1052100008D8CC4E2A4607A906F180000BF057FFAC
:10522000A6F80C51ADF80AA08DF8087022988DF8F8
:10523000090000200390012F0CBF04940490C3497F
:1052400002A8CDE9000107AB2A465046229903F097
:10525000FDFC27B0BDE8F08F2DE9FF4FADF5337DA4
:105260000027DDE9C0A61C468946BAF10C0F24BF11
:10527000307800287ED0BAF10C0F24BF3078012896
:105280007DD0BAF1090F24BF3078022800F0DC800D
:10529000BAF1080F24BF3078FC2800F03A81BAF147
:1052A000080F24BF3078FD2800F0B582BAF1060F50
:1052B00024BF3078FE2800F02A84BAF1070F07BF18
:1052C0003078FF280DF5377DBDE8F08FADF8087018
:1052D000ADF80C708DF810708DF81470B17870788E
:1052E0002DF0A2FBADF808003179F0782DF09CFB91
:1052F000ADF80C00707900098DF81400B0798DF8C4
:10530000100001F06EFD0146BDF80800814207D093
:10531000FFF75AF8002804BF0DF5377DBDE8F08F80
:10532000884CB4F80C01002823D004A8CDE9007003
:10533000B4F80E2104F1640349469DF8140008F006
:10534000ABFC04F18002B4F80C11CDE9001294F822
:10535000671094F8242091422CBF0023012394F875
:105360001011B4F80EC102466046FFF775FFA4F8AD
:105370000C7100E003E00DF5377DBDE8F08FADF86E
:105380002870ADF82C70ADF830708DF83470ADF831
:1053900038708DF83C708DF840708DF844708DF841
:1053A0004870307800280CBF01250025B17870784E
:1053B0002DF03AFBADF828003179F0782DF034FB70
:1053C000ADF82C00B17970792DF02EFBADF83000DE
:1053D000F07901098DF8341000F00F008DF84800C5
:1053E000717A307A2DF020FBADF83800B07AB39A9C
:1053F000010900F00F008DF83C108DF84000F07AA4
:1054000006AE00098DF84400C1B29DF84000B59B7E
:1054100086E80F009DF83C00BDF838109DF8482044
:10542000CDE90410CDE902249DF83410BDF8300018
:10543000CDE9000185F001004B46BDF82C20BDF8F8
:105440002810FFF76DFC94E7ADF87070ADF87C7034
:10545000ADF878708DF87470B17870782DF0E4FA4A
:10546000ADF870003179F0782DF0DEFAADF87C00FF
:105470007579F179B0792DF0D7FAADF87800307AF6
:1054800000098DF87400BDF87000FEF7F8FBD0B38A
:105490009DF8740000281CBF401E8DF8740001F0B8
:1054A000A0FC0146BDF8700081422CD0FEF78CFFB5
:1054B00048BB9DF8744034B3BDF87080BDF87C9053
:1054C000BDF878A064264046FEF7D9FBD8B103A802
:1054D0000094CDE9016053462A464946404600F013
:1054E000F3FD03AA314609F0B1FA044620A940466B
:1054F000FEF725FB164903ABCDE9007122469DF866
:10550000801003F0A3FB0021BDF87800FEF7B5FC86
:105510002FE7642027900020ADF88400ADF89400B8
:105520008DF898008DF880008046289020A8009083
:10553000084FB17870782DF077FAADF884003179A2
:10554000F07809E0DCE00020ED4940005F474000D2
:10555000F142400004E200202DF066FAADF894001C
:105560007079092501098DF89810317A00F00F0043
:1055700041EA0060B179F279090441EA022140EA86
:10558000010BAAF10900C11700EB9170C0F387006D
:105590008DF880004FF0000A002827D97419705D3B
:1055A00061782DF041FA27F83A00A078C10907EB9D
:1055B000CA008170A178C1F302110171A178C1F311
:1055C000C0014171A178C1F380018171A17801F01E
:1055D0000301C171E178C170281D85B20AF1010093
:1055E00000F0FF0A009800785045D7D89DF8800059
:1055F000FE4C10283ED201F0F4FB9DF8801024F8F8
:1056000031009DF8980008F082FB38B19DF88000C9
:10561000B59904EBC000C170002106E09DF8800040
:10562000002104EBC000C17001218170F04890F8A6
:105630003A0040B1B39801F017FC9DF8801004EBDC
:10564000C101087105E09DF88010002004EBC10144
:1056500008719DF88010002204EBC100B9F1010F20
:105660008271C27180F8059004BF07220271481C44
:105670008DF8800001F0B5FB0146BDF88400814241
:1056800002D0FEF7A1FEA8B14FF0010801F0D6FB51
:10569000054601F0B1FBBDF89410884221D101F01C
:1056A000A0FBA84203D02846FEF78EFEC8B1012019
:1056B000289016E0BDF88400FEF7E1FA002808BF44
:1056C0004FF001080DD0BDF88400FEF713FA40B189
:1056D0009DF88010407A04EBC101C0F3401001F83E
:1056E000020CFF208DF8920007ADB8F1000F4AD0F0
:1056F000BF4E96F84500112808D3BDF88400FEF788
:1057000063FE002818BFBDF8840001D101F069FBD9
:1057100096F845100F2918BF064630D0BDF8940002
:10572000FEF7E8F940B1407AC0F340119DF88000DF
:1057300004EBC00000F8021C27990020CDE9040109
:105740004FEA1B41069503949DF880200091CDE916
:1057500001209DF898303246BDF88410BDF89400C1
:10576000FEF754FE054601F03CFB0146BDF88400FF
:10577000814218BFFEF728FEBDF8944028E001F0F2
:1057800030FB0646CAE79DF88010279803950091E4
:10579000CDE901405B469DF89820BDF89410BDF816
:1057A0008400FEF7FCF90546BDF88440ADF888405A
:1057B000BDF89400ADF88A009DF898008DF891002E
:1057C0004FEA1B40ADF88E009DF880008DF89200E6
:1057D0002046FEF754FAC0B107AA2846279909F0D7
:1057E00035F9054629A92046FEF7A9F99DF8A41028
:1057F000DFF800C2ADF88C008DF8901022ABCDE937
:10580000003C07AB2A4603F021FA2898002818BF6D
:1058100008F0FAFBADE508A901910DF1250B0DF19A
:1058200026080AAC2AADB17870782DF0FDF8ADF8F5
:105830001C003179F0782DF0F7F8ADF81E00707982
:1058400000098DF824007179B07901F00F0140EA68
:105850000120ADF82200317AF0792DF0E5F8ADF8AD
:105860002000092000218DF82510011D00915145CF
:105870009CBF9BF80010102928D23718305C79782B
:105880002DF0D2F82080B878C009A070B878C0F3A5
:1058900002102071B878C0F3C0006071B878C0F30E
:1058A0008000A071B87800F00300E071F878E07033
:1058B0009BF800100098491C8BF800100199228871
:1058C00080B209888A4218BF0834CED14FF0000B4D
:1058D00088F800B027E03418305C61782DF0A4F827
:1058E00025F8020BA078C00905F8020BA078C0F3D8
:1058F000021005F8040BA078C0F3C00005F8030CF3
:10590000A078C0F3800005F8020CA07800F0030036
:1059100005F8010CE07805F8050C98F80010B8B20D
:10592000491C88F80010071D57459CBF98F80010C7
:105930001029D0D39DF82600102874D201F051FA16
:105940009DF8261007AC04EBC101A1F88C009DF86E
:10595000240008F0DCF968B19DF8260004EBC000D3
:1059600080F88EB09DF82610B59804EBC10181F83F
:105970008F000CE09DF82610012004EBC10181F896
:105980008E009DF8260004EBC00080F88FB0184808
:1059900090F83A0048B1B39801F066FA9DF82610E5
:1059A00004EBC10181F8900005E09DF8260004EBAE
:1059B000C00080F890B09DF82600B9F1010F04EB0B
:1059C000C00080F891B09DF8260004EBC00080F87C
:1059D00092B09DF8260004EBC00080F893B09DF8CB
:1059E000260004EBC00080F8919005E004E200205E
:1059F000DCE000203B49400006D19DF8261007203E
:105A000004EBC10181F89000BDF81C00FEF772F8AC
:105A100050B19DF82610407A04EBC101C0F340104C
:105A200081F892000CE010E001F0DBF9BDF81C10E9
:105A3000884205D19DF8260004EBC00080F892B0A2
:105A40009DF82600401C8DF8260001F0CAF9014699
:105A5000BDF81C00814202D0FEF7B6FCB8B1BDF81B
:105A60001E00002607ADFE4CB4F8681088427FF493
:105A700080AC04F170002EF0C9FFE26E002A3FF402
:105A800078AC294630469047C4F86CB071E42AA936
:105A90000AAACDE903214FF4C8744AA8CDE905400C
:105AA0009DF826209DF82510BDF822000292CDE930
:105AB00000019DF82430BDF82020BDF81E10BDF86F
:105AC0001C00FEF7A3FC0546BDF81C00FEF7D7F846
:105AD00000283FF44EAC4AAA2146284608F0B6FFFB
