:020000040040BA
:10000000500A02201D0140009533410027014000A5
:1000100089334100E1194100996E41000000000060
:100020000000000000000000000000002F01400060
:100030003101400000000000330140003501400064
:10004000ED4B410059484100370140003701400065
:1000500037014000370140003701400037014000C0
:10006000ED1941003701400000000000A1334100BC
:10007000B1334100370140003701400037014000F3
:100080003701400037014000370140003701400090
:10009000551A410037014000370140003701400048
:1000A000370140003D4C4100ED5041000D524100F0
:1000B00037014000FDF7400037014000000000001C
:1000C0000000000000000000000000000000000030
:1000D0000000000000000000000000000000000020
:1000E0000000000000000000000000000000000010
:1000F0000000000000000000000000003701400088
:100100007954410037014000DFF80CD00FF064FB58
:100110000048004715224200500A02200648804746
:1001200006480047FEE7FEE7FEE7FEE7FEE7FEE7DC
:10013000FEE7FEE7FEE7FEE70D4C41000901400047
:10014000E54890F8B10000F0BABF30B4B0E838101C
:10015000E24AA2E8381090E8191082E8191030BC81
:10016000084600F0ACBF70B4DB4A8446002592F824
:10017000B140D069138C29460F2C02D0C28992B1AC
:1001800001E0028A7AB101220DE00688664501D1BC
:1001900005460CE01230491C8B4204D90F2C09D0C3
:1001A000C289002AEFD18B4201D9002AEDD128461D
:1001B00070BC7047028A002AF5D0E4E710B4C64A42
:1001C00003460024506A128D21468A420CD9B0F8A9
:1001D00003C0BCF1000F07D0B0F800C09C451CBFA5
:1001E000401D491CF1D10446204610BC70472DE942
:1001F000F04383B014460B46B0F5857F18BFB0F5C9
:10020000907F13D0A0F10061891E18BF71280DD016
:10021000B0F1006F1CBFA0F10061B1F1200105D069
:10022000A0F10061273918BF002100D1012100256C
:1002300021B9002B18BFF92040F0E28201210422ED
:100240000827A54E4FF0020CB0F1006F00F0AA8114
:1002500060DCB0F5837F00F0CC8247DC5C287CD08A
:100260001FDC4F2800F0C58210DC49286FD006DC67
:10027000402818BF472840F0BA8200F0BABA4C288C
:100280006CD04E2800F0B58200F0B1BA502866D08C
:10029000512865D0532876D0592800F0AA8200F062
:1002A000A6BA40F20117A0F2011CB8426CD00FDCD4
:1002B0005D2852D0712808BFF32000F0A182772872
:1002C00000F09B81B0F5807F00F0938200F08FBA40
:1002D000BCF1010F73D0BCF1020F71D0BCF1030F60
:1002E0006FD0BCF1040F6DD000F081BAA0F20717F7
:1002F0001A2F80F07C82DFE807F09BA3F8ABD5F8DB
:10030000F7F6F5F8F4F8F8F8F8F8F3F3F3F3F3F395
:10031000F3F8F8DC6FF000688044B8F1270F80F044
:100320006682DFE808F0FCFBE224FAF9E2E2E2F898
:10033000F7F6F5F4F3F2F1F0EFEEEDECEBEAE9E8C5
:10034000E7E2E6E5E2E2E4E2DDE2E2E2FE0021707D
:100350000A4606F14701601C03E036E015E01DE0A7
:1003600026E00EF0A7FE03B02846BDE8F083624603
:1003700084F800C006F18001601C0EF09BFE284648
:1003800003B0BDE8F08323E02CE021700A4606F1BB
:100390004801601C0EF08EFE2846F1E7624684F8A4
:1003A00000C006F14A01601C0EF084FE2846E7E713
:1003B000217096F85600002879D0012077E018E0E7
:1003C0001EE025E02CE02846DAE721706170FAE7AC
:1003D000624684F800C006F15401601C0EF06AFE0B
:1003E0002846CDE722703C49601C0EF063FE28468B
:1003F000C6E72270311D601C0EF05CFE2846BFE788
:10040000227006F10801601C0EF054FE2846B7E782
:10041000227006F10C01601C0EF04CFE2846AFE77E
:10042000227006F11001601C0EF044FE2846A7E77A
:10043000227006F11401601C0EF03CFE28469FE776
:10044000227006F11801601C0EF034FE284697E772
:1004500096F8B11020460F2909D103EBC3024FF0E3
:10046000100CF1690CEB42021144098801B1012121
:10047000328C9A4254D9002952D01221017096F838
:10048000B110112924BF1021017003EBC302F169DF
:1004900001EB42010278601C0EF00CFE002000F01F
:1004A000ACB904E0217096F84000002885D1607056
:1004B00089E7318D2046994232D903EB8301726A74
:1004C000CB1C1A4412885AB305220270736A601C4E
:1004D00019440EF0EFFD7EE080030020340400207C
:1004E00085E156E04BE041E037E082E119E072E15E
:1004F00055E14DE145E13DE135E12CE123E11AE132
:1005000011E108E1FFE0DFE0D5E0CBE0C1E09CE0F5
:1005100092E0B5E0ABE0A1E08CE069E075E05EE080
:100520005BE04FF0000C328D716AF9276046824221
:1005300009D9B1F8036036B10E889E421CBF401C39
:10054000491DF4D18C465FEA0C0171D0052222705E
:10055000601C0EF0AFFD00276AE021700A4606F12C
:100560004101601C0EF0A6FD284609E721700A46ED
:1005700006F14201601C0EF09DFD284600E7624630
:1005800084F800C006F14401601C0EF093FD28467B
:10059000F6E621700A4606F14601601C0EF08AFD5F
:1005A0002846EDE6F06A03EB430100EB4100318E93
:1005B000994212D90188D0F80220D1420DD027707B
:1005C000B6F84A10A4F801100188A4F80310D0F876
:1005D0000200C4F8050000200FE1F9200DE13A46C1
:1005E000277006F14C01601C0EF064FD2846C7E63A
:1005F0004FF4C870ADF80000E5E0227006F17C0110
:10060000601C0EF057FD2846BAE6F9271846FFF79A
:10061000AAFD68B11223237096F8B110112924BFE6
:100620001022227022780146601C0EF043FD002744
:100630003846E2E0E220E3E021700A4606F1870155
:10064000601C0EF037FD28469AE621700A4606F136
:100650008801601C0EF02EFD284691E621700A46A6
:1006600006F18201601C0EF025FD284688E6217007
:100670000A4606F18301601C0EF01CFD28467FE649
:100680000322227006F18401601C0EF013FD28463F
:1006900076E621700A4606F18901601C0EF00AFD1B
:1006A00028466DE621700A4606F18A01601C0EF0AC
:1006B00001FD284664E621700A4606F18B01601CA4
:1006C0000EF0F8FC28465BE6ADF80050338C0021B4
:1006D000F069002B88BF96F8B16074D90F2E0ED048
:1006E000C28902B1012222B1BDF80020521CADF82E
:1006F0000020491C89B212308B42EFD863E0028A95
:10070000002AEFD1EFE7227006F18C01601C0EF099
:10071000D1FC284634E6227006F19001601C0EF0F0
:10072000C9FC28462CE6227006F19401601C0EF0EC
:10073000C1FC284624E6227006F19801601C0EF0E8
:10074000B9FC28461CE6227006F19C01601C0EF0E4
:10075000B1FC284614E6227006F1A001601C0EF0E0
:10076000A9FC28460CE6227006F1A401601C0EF0DC
:10077000A1FC28E6227006F1A801601C0EF09AFC8C
:1007800021E6227006F1AC01601C0EF093FC1AE623
:10079000217096F8B00000283FF489AE0DE6ADF860
:1007A0000050328D0021706A002A0CD9B0F8033055
:1007B00023B1BDF800305B1CADF80030491C89B294
:1007C000401D8A42F2D8624684F800C06946601C27
:1007D0000EF070FCF7E5FE480622D0E90010CDE9E6
:1007E000001022706946601C0EF064FCEBE5F420FA
:1007F00006E02246194612F043F900283FF4C0AD46
:100800002570BDE52DE9F04FF24BA5B00F4605462A
:100810001446B0F5857F18BFB5F5907F10D0A5F1CF
:100820000060801E18BF712D0AD0B5F1006F18BF8F
:100830009D4205D0A5F10060273818BF002000D1E7
:10084000012010B9002F40F0CC820020E24E4FF082
:100850000108B5F1006F00F0E2835DDCB5F5837F40
:1008600000F0878244DC5C2D00F0D98320DC4F2D22
:1008700000F07F8211DC492D55D007DC402D00F0BF
:10088000CE83472D00F0758200F0CBBB4C2D4BD0B2
:100890004E2D00F06E8200F0C4BB502D45D0512D7E
:1008A00044D0532D43D0592D00F0638200F0B9BBE2
:1008B00040F20112A5F20111954239D00EDC5D2DF6
:1008C00000F0AD83712D00F06282772D00F08B82F5
:1008D000B5F5807F00F04D8200F0A3BB012978D0F0
:1008E000022977D0032976D0042975D000F099BB6E
:1008F000A5F207101A2880F09483DFE800F0C8D230
:10090000FCDCFBFCFAF9F8FCF7FCFCFCF6F6F5F570
:10091000F5F5F5F5F5FCFCF46FF0006129442729A5
:1009200080F07F8305E02DE03AE043E05BE069E0A2
:100930007BE0DFE811F01202DA00DA00DA00DA0018
:100940006102E000E000E0006C028B029702DA0036
:10095000DA00A102B102C202DA00D302DE02E8022A
:10096000F202FC02060310031A032403E0002F0323
:10097000DA00E000E000DA00E0003E03E000E00022
:10098000E000DA0022780025012A40F00183611C92
:1009900006F147000EF08EFB25B02846BDE8F08F2B
:1009A00022780025012A04BF611C06F1480040F0AE
:1009B000EF8242E022784FF00008022A18BF4FF081
:1009C000E8080AD05FEA080000F0D38125B0BDE84E
:1009D000F08F35E03DE046E04FE0611C06F14A0053
:1009E0000EF068FBEEE7127800206178012A40F0F3
:1009F0002B82012900F22882002918BF012186F8E4
:100A00005610E3E722784FF00008022A18BF4FF093
:100A1000E80804D05FEA080000F0AB81D6E7611C6B
:100A200006F154000EF046FBF4E722780025042A74
:100A300004BF611C684840F0AB820EF03BFBABE7A3
:100A400022780025042A04BF611C301D40F0A082DA
:100A5000F3E722780025042A04BF611C06F1080090
:100A600040F09682E9E722780025042A04BF611C41
:100A700006F10C0040F08C82DFE722780025042A82
:100A800004BF611C06F1100040F08282D5E7227895
:100A90000025042A04BF611C06F11400CDD000F02B
:100AA00077BA22780025042A04BF611C06F11800D9
:100AB000C3D000F06DBA318CE820002986D02278AE
:100AC000122A18BF102A81D1D4F801000090D4F85E
:100AD00005000190D4F809000290D4F80D000390AD
:100AE000B4F8110008E0B1E09BE298E221E116E1E0
:100AF0000AE1FFE09DE03CE1ADF81000F06996F8F6
:100B0000B1704FF0000205468BB214460F2F07D08C
:100B1000B0F80EC0BCF1000F07D04FF0010C04E09C
:100B2000B0F810C0BCF1000FF7D1BDF800B0BDF8AF
:100B300010A0BDF80E90A1F101088A4233D2BCF199
:100B4000000F30D0B0F800E0DE4508BF13460F2F8D
:100B500006D0B0F80EE0F14506D24FF0010E05E0E8
:100B6000B0F810E0F245F8D34FF0000EBEF1000FE0
:100B700018BF904503D999420CBF541C144612303B
:100B8000521C9142D9D90F2F07D0B0F80EC0BCF13A
:100B9000000FD2D04FF0010CCFE7B0F810C0BCF17D
:100BA000000FCAD0F6E7914208BF521E9A4238BFE2
:100BB00013469C4219D204EBC40005EB40014FF0F0
:100BC000120202EB40002844A3EB040206E00000FE
:100BD00008F54200200000088003002002EBC2025A
:100BE0004FEA42020EF066FA11E010D903EBC3009F
:100BF0004FF0120101EB4001A4EB030202EBC20231
:100C0000294405EB40004FEA42020EF053FAF06926
:100C100004EBC40100EB41000099016001994160BF
:100C2000029981600399C160BDF810100182002013
:100C3000CCE6127800206178012A6FD101296DD8A5
:100C4000002918BF012186F84010BFE62178E8206E
:100C500005297FF4BBAEE846511C40462DF0D3FF7A
:100C6000706A338D002284461D461446BDF80090FC
:100C7000BDF8031010E0BCF800A0CA4508BF134639
:100C8000B9423CBF571CAF4203D29D420CBF3C4609
:100C90001446521C0CF1050C954203D9BCF80370A4
:100CA000002FE8D19A4238BF13469C420DD204EB84
:100CB000840200EB020102F105021044A3EB0402DE
:100CC00002EB82020EF0F6F90CE00BD903EB830283
:100CD00002F1050101441044A4EB030202EB82027D
:100CE0000EF0E8F9706A04EB8401084441462DF0E7
:100CF0008AFF74E022780025012A04BF611C06F1F6
:100D000041003FF49AAE43E122780025012A04BF56
:100D1000611C06F142003FF490AE39E194E0227884
:100D20000025022A04BF611C06F144003FF485AE91
:100D30002EE110780025114601287DD1C2B2684607
:100D4000491C0EF0B7F99DF80000411EFD2998BF1F
:100D500086F846007FF620AE1AE122784FF00008B0
:100D6000082A18BF4FF0E8080BD05FEA08007FF4AC
:100D70002DAE25B0224639462846BDE8F04F12F088
:100D80009FB9611C06F14C000EF094F9EDE7254681
:100D9000022F26D2E14B297807EB0712D41810292D
:100DA00005D0002908BF84F8570018D04CE094F80B
:100DB000570030B104F158001022691C0EF0B6F94A
:100DC00068B1D5F80100A065D5F80500E065D5F853
:100DD00009002066D5F80D00606684F85780002071
:100DE000F4E5F920F2E522780025042A04BF611C0D
:100DF00006F17C0020D120E620780025E0B9308E75
:100E000000EB40004100F06A0EF07BF9C4E5217868
:100E10006078012918D1022816D886F882000128A6
:100E200004BFAA208DF8010005D002280CBF552070
:100E3000FF208DF8010000E0AAE08DF800806A46EE
:100E40004FF4BA711846E7E0E820BFE522780020A9
:100E50006178012AF8D1042998BF86F883107FF6BB
:100E6000B5ADF1E722780025032A04BF611C06F125
:100E700084003FF4E2AD8BE0227800206178012A03
:100E8000E2D1012908BF012138BF002198BF86F8AF
:100E900089107FF69BADD7E7227861784FF000008C
:100EA000012AD1D1012908BF012138BF002198BFF3
:100EB00086F88A107FF68AADC6E7227861784FF00F
:100EC0000000012AC0D1012908BF012138BF00213B
:100ED00098BF86F88B107FF679ADB5E722784FF092
:100EE0000005042A04BF611C06F18C003FF4A5AD87
:100EF0004EE022780025042A04BF611C06F1900010
:100F00003FF49BAD44E022780025042A04BF611C15
:100F100006F194003FF491AD3AE022780025042ACE
:100F200004BF611C06F198003FF487AD30E02278E1
:100F30000025042A04BF611C06F19C003FF47DAD2E
:100F400026E022780025042A04BF611C06F1A000D7
:100F50003FF473AD1CE022780025042A04BF611C15
:100F600006F1A4003FF469AD12E022780025042ABE
:100F700004BF611C06F1A8003FF45FAD08E02278D1
:100F80000025042A04BF611C06F1AC003FF455ADF6
:100F9000E82501E5227800206178012A7FF454AF2A
:100FA00001293FF651AF002918BF012186F8B01082
:100FB0000CE530607060B060F06030617061B0610D
:100FC000C6F88C00C6F89000C6F89400C6F89800E1
:100FD000C6F89C00C6F8A000C6F8A400C6F8A80091
:100FE000C6F8AC00CDF8010004208DF800006A4678
:100FF00000214FF4837012F063F800287FF4E6AC10
:101000006A46002140F2091012F05AF800287FF4D5
:10101000DDAC6A460021424812F052F8D6E4FB20CB
:10102000D4E4F420D2E4F0B5054600202A7883B059
:10103000022A1CBF03B0F0BD384E0023348EF26A82
:10104000002C88BFB5F802C020D91788674501D1A8
:10105000104603E0921D5B1C9C42F6D8002818BF86
:10106000002213D00A709AB1308EF16A401E00EB54
:1010700040004200881D0EF01DF8F06A2DF0B2FD10
:10108000F16A68880880F06A03B0F0BD0122E9E7E0
:10109000016800918488ADF80440F16A214A401A41
:1010A00082FB0020A0EBE07000EB40004200881DB6
:1010B0000EF000F8F06A009901608480E3E770B5F3
:1010C0000546B422184915480DF0F4FF1749A1F15F
:1010D000B4040868E061888A208448686062C88A2D
:1010E00020858868E062088B2086C868606308698C
:1010F000A063488BA087888BE08713F0E5FB84F81A
:10110000470013F0E1FB84F8480084F8B1500F2D3C
:1011100004BF022084F8410070BD0000800300205D
:101120001C000008ABAAAA2A10F5420034040020D3
:1011300070B5FE49044682B00878A1F1280601285E
:101140000BD091F84E03022819D3257DD02422F02C
:101150001BFF316851B902B070BD257DE22422F039
:1011600013FF3168002904BF02B070BD8DF8005034
:1011700001908DF801406846884702B070BDD322C7
:1011800010FB02F2401C01EB420581F84E0320786F
:1011900005F8020F6088688060686860A068A860D1
:1011A000A089A881E289EA8105F1100021690DF08A
:1011B00081FF207D85F8A001607D85F8A101A07DDB
:1011C00085F8A201E07D85F8A301207E85F8A401C1
:1011D00002B070BD10B5D64CA8B0A168002904BFFC
:1011E00028B010BD016801918188ADF808100DF19B
:1011F0000A020198FEF7FBFF8DF80000A16868461F
:10120000884728B010BD00B583B00168019181887E
:10121000019B821DADF808101846FFF7F3FA8DF810
:101220000000C348C16800291CBF6846884703B056
:1012300000BD38B504464FF45F72BE49BB480DF09F
:1012400039FF207809F007F9B9480169002908BF7A
:1012500038BD00208DF800006846884738BDF0B5DD
:10126000B24CAFB0217869B1A4F12801E2208969BC
:10127000002904BF2FB0F0BD8DF8000068468847F4
:101280002FB0F0BDAA4900884FF6FF75A1F878038A
:10129000A948ADF8B45001262670B0F84A00A4F869
:1012A0005803ADF8015002278DF800706A460021FE
:1012B0005020FFF7A7FA002084F8520384F85A035D
:1012C00007218DF8B01003218DF894108DF895004A
:1012D0008DF89870ADF89650ADF89A50ADF8A260C0
:1012E0002CA9CDE929108DF8AC008DF8AD6025A8AA
:1012F00008F066FF2FB0F0BD10B58F4CA6B0B4F863
:101300005410A1F57F42FF3A08BFEC2012D00088AC
:10131000ADF8010002208DF800006A46002150203F
:10132000FFF770FA012084F8490011F0BFFE002099
:10133000A4F844007E49C969002904BF26B010BD45
:101340008DF8940025A8884726B010BDF0B5774DDC
:1013500004460027287883B0A5F12806012828D064
:10136000022804D0032808BF2F7003B0F0BD95F801
:101370004E034FF4D371401EC0B285F84E0310FBEC
:1013800001F205F5D471A81C0DF094FE2F703168A0
:1013900095F84F2320786368002904BF03B0F0BD9F
:1013A0008DF800208DF8010068460193884703B04E
:1013B000F0BD207860B12F70B1692078002904BF9A
:1013C00003B0F0BD8DF800006846884703B0F0BD5B
:1013D000012085F8520322F0D7FDC5F8540303B06D
:1013E000F0BD70B5544B0446012293F882000025ED
:1013F000012808BF257004D002281ABF4878207041
:10140000227093F88300012808BF65700DD0022870
:1014100008BF627009D0032808BF022026D0042824
:101420001ABF08786070032020D0A5700022E570F4
:10143000104603EB000C401C9CF884C0C0B2624410
:1014400092B20328F5D3002A14BFB3F88400488869
:10145000A08014BF93F886000879A071E571257209
:1014600004F109002DF0BEFBE57370BD6070DCE790
:101470002DE9F04104460C2A0CBF01260026002E5F
:1014800051D011F8010B0D4600F007026270C00840
:1014900000F00F020009A270E07000272748A78023
:1014A000A771007818B32878082100F0BAFB8046AD
:1014B0006878082100F0B5FB8044A878082100F086
:1014C000B0FB4044022838BF00261BD328780821EF
:1014D00000F0A7FB80466878082100F0A2FB80445A
:1014E000A878082100F09DFB4044022804D92888F0
:1014F000A080A878A07105E011480188A1808078BB
:10150000A071677015F8030F207255F8010FC4F829
:101510000900A888A4F80D00A87900F07F01E17106
:10152000C0092070E7733046BDE8F0817C040020DC
:1015300054040020C4F5420080030020540200201F
:10154000570200202DE9F043FF4D044693B0287860
:10155000A5F1280801280BD094F822000127FB4EA2
:101560004FF6FF7900287CD095F85A0388B3D6E06F
:10157000207800281CBF13B0BDE8F083D8F8141001
:10158000002904BF13B0BDE8F083608B06280CBFB0
:1015900001200020002804BF13B0BDE8F0832079AB
:1015A00002281CBF13B0BDE8F0836088ADF80000CE
:1015B00094F824008DF80200E088ADF80400E0699A
:1015C000808840BAADF806006846884713B0BDE889
:1015D000F083FFE7B6F85400484542D085F85A73C7
:1015E0006088A5F85C03DA486168C0F88613A168D2
:1015F000C0F88A13A189A0F88E1304F12C01684663
:10160000FFF7EFFE94F82400D24A8DF8080000207E
:10161000127805F55A7107233AB1012A2CD00C2310
:10162000022A18BF032A52D077E09DF803009DF8E4
:10163000022042EA00109DF8012042EA80009DF855
:10164000002042EA400008709DF807209DF8040041
:1016500062F39F1048709DF808008870BDF809007B
:1016600000E05CE0A1F803009DF80B0048719DF8D4
:101670000F008871184650E09DF803009DF8022085
:1016800042EA00109DF8012042EA80009DF8002007
:1016900042EA400008709DF804209DF8070002F01F
:1016A0000F0242EA801048709DF8080088709DF88B
:1016B0000900C8709DF80A0000F00F0008714FF093
:1016C000000048719DF80F008871184625E09DF8CC
:1016D00003009DF8022042EA00109DF8012042EA32
:1016E000C00001F8010BBDF8040021F8020B9DF8C1
:1016F000060001F8020B9DF8080001F8010CDDF866
:1017000009000860BDF80D0088809DF800009DF874
:10171000072042EAC0108871184685F874032078C3
:10172000002802BF86F88B7013B0BDE8F083012853
:101730001ED0022804BF13B0BDE8F08303281CBFED
:1017400013B0BDE8F0832046618B002904BF13B0BD
:10175000BDE8F083C1690978072974D00A291CBF44
:1017600013B0BDE8F08313B0BDE8F04300F06ABAEF
:10177000D8F80400002804BF13B0BDE8F08304F1DA
:101780002C010EA8FFF72DFE6088ADF80000606800
:10179000CDF80200A068CDF80600A089ADF80A00D7
:1017A000E089ADF80C002069CDF80E006069CDF835
:1017B0001200208BADF81600608BADF81800E069C0
:1017C000079094F824008DF8200094F825008DF8F7
:1017D000210022F0D9FB099094F820008DF8280010
:1017E00094F821008DF8290094F82300002818BFF0
:1017F00001208DF82A0094F826008DF82B0094F82B
:1018000027008DF82C00B4F82900ADF82D0094F8CD
:101810002B008DF82F009DF839008DF830009DF8D1
:1018200038008DF83100BDF83C00ADF832009DF86D
:101830003E008DF83400D8F804106846884713B08D
:10184000BDE8F083FFE7B6F85400484504BF13B085
:10185000BDE8F08395F8750300281CBF13B0BDE800
:10186000F08311F0FFF8044696F846003A494143E8
:10187000002013F03DF82044C5F8780385F875730F
:1018800013B0BDE8F08330B5314D044693B0686ABB
:10189000002804BF13B030BD04F12C010EA8FFF7DF
:1018A000A0FD20788DF800006088ADF80200211DB1
:1018B00001A82DF09FF9E089ADF80E0004F11001A8
:1018C00004A82DF097F9608BADF81A00E069079035
:1018D00094F824008DF8200094F825008DF821005C
:1018E00022F052FB099094F820008DF8280094F81B
:1018F00021008DF8290094F82300002818BF01204A
:101900008DF82A0094F826008DF82B0094F8270013
:101910008DF82C00B4F82900ADF82D0094F82B00B8
:101920008DF82F009DF839008DF830009DF83800B3
:101930008DF83100BDF83C00ADF832009DF83E0056
:101940008DF83400684609E07C0400208003002004
:10195000540400205A02002040420F00696A884760
:1019600013B030BDFD49096A002908BF7047084718
:101970002DE9F04117468846B0E83410F749A6B083
:101980001E46A1E83410B0E81C10A1E81C10D0E9F4
:101990000020C1E900204FF45F72F149F1480DF0D9
:1019A00089FB404607F042FE31463846FEF7CDFB44
:1019B0003146404608F025FE0024CDF801406A4635
:1019C0004FF48671E84811F05BF89DF80410E74881
:1019D000252906BF01210170047026B0BDE8F08101
:1019E0002DE9F04FDD4E8BB03068002804BF0BB0FE
:1019F000BDE8F08F08F01AFEDA4C002520780128A7
:101A000018D194F85203A8B122F0BEFAD4F85413B6
:101A1000411AB4F8500300EB4002C2EBC010B1EB26
:101A2000C00F07D32570B169002019B18DF80000EF
:101A30006846884794F875030226012808D111F0FA
:101A400011F8D4F87813081A0028D8BF84F8756301
:101A5000207800281CBF0BB0BDE8F08F94F8750308
:101A6000DFF80C8301274FF0030902283BD184F8EB
:101A70007553B8F85410A1F57F40FF3833D084F87F
:101A800000908DF8005098F8490000280CBF802085
:101A9000C0208DF801008DF802508DF80350B8F881
:101AA00044008DF80850010A8DF804108DF80500E7
:101AB0008DF80960B8F84A00ADF80A000620ADF8C4
:101AC00016006846CDE906058DF80C508DF82050BB
:101AD0008DF8217002A808F073FB207800281CBF45
:101AE0000BB0BDE8F08F94F85A03DFF870A2D8B3BA
:101AF00084F800900A208DF81C0094F8742304F5F3
:101B00005A710DF11C0B0DF11D000DF0D3FA84F884
:101B10005A538DF800908DF80160B4F85C03ADF86D
:101B20000200DAF886030190DAF88A030290BAF824
:101B30008E03ADF80C0094F874038DF81470401CFB
:101B40008DF81550ADF80E008DF816508DF8185020
:101B5000CDF810B08DF817508DF81970684608F060
:101B60002FFB2078002800E003E01CBF0BB0BDE88D
:101B7000F08F94F84E03002850D08DF80070A078B4
:101B80008DF80100A088ADF80200DAF82E1001915E
:101B9000DAF832100291BAF83610ADF80C10218A3A
:101BA000ADF80E107349049194F8A31101F00101EE
:101BB0008DF8141094F8A4118DF8151094F8A5114F
:101BC0008DF8161094F8A611012918BF00218DF880
:101BD0001710B8F84A200021824213D14FF6FF7245
:101BE00090420FD09DF8040002280BD1BDF80600EA
:101BF000904207D0FEF7B7FA00281BBFC089002823
:101C0000012100218DF818108DF8195094F8A201C7
:101C100084F84F032670684608F0D2FA0BB0BDE88E
:101C2000F08F034600200246002998BF704723FA30
:101C300002FC0CF0010C521C6044D2B2C0B29142C2
:101C4000F5D870472DE9F04F074600794A4EADB000
:101C5000022840F0DF80F8693378411CB87EDFF855
:101C60001CA1401EC2B24148EC460DF109080078A3
:101C70004FF0000933B1012B55D0022B18BF032BB5
:101C80006BD0C7E0072A14BF00240124002C49D0E0
:101C90000A7802F001038DF80030520802F00303C5
:101CA0008DF80130920802F00F0312098DF802300E
:101CB0008DF8032091F801B0ADF804904D1C8DF81B
:101CC0000690C0B106215846FFF7ABFF002808BFB9
:101CD000002414D006215846FFF7A3FF01280AD894
:101CE000BAF80000ADF804009AF802008DF806007A
:101CF0008DF8019003E00BF03F008DF804004FEAEF
:101D00009B108DF8070068788DF8080040462CF08D
:101D100069FF6888ADF8090028798DF80B006879AB
:101D20008DF80F0072E0072A14BF00240124002C54
:101D30006CD00A7802F001038DF80030520802F0EE
:101D400003038DF80130920802F00F0312098DF899
:101D500002308DF803204D1C12E053E054040020A3
:101D6000C4F542007C04002020000008540200203A
:101D7000800300208E0400205A0200205702002019
:101D800091F801B0ADF804908DF80690002808BFD6
:101D90000BF00F001BD003215846FFF742FF00282D
:101DA00008BF002415D003215846FFF73AFF012849
:101DB00088BF0BF007000AD8BAF80000ADF804009D
:101DC0009AF802008DF806008DF8019001E08DF878
:101DD00004004FEA9B108DF8070068788DF8080022
:101DE00040462CF0FFFE6888ADF809009DF80A0017
:101DF00000F00F008DF80A008DF80B9068798DF8CF
:101E00000F0003E06046FFF733FB0446002C18BFC9
:101E1000012000D10020002804BF2DB0BDE8F08FC4
:101E200029AC04AA00214FF48870FEF7E0F9F0B164
:101E3000FF22092120460DF05DF901A8079000203E
:101E400084460690707805904FF0000A96F802B02C
:101E5000F078049005980DF1A40E56465546544668
:101E600052465146D14600284BD99EB90AE0DDF8CA
:101E700011002990DDF815002A909DF819008DF8C1
:101E8000AC00DAE70798082610F80A500AF10100BA
:101E900000F0FF0A05F00108701E6D080023C6B2AD
:101EA000BBF1000F15D922B9601C1EF80410C4B292
:101EB000082201F001004908521ED2B218EA000FB0
:101EC0001CBF0CF1010000F0FF0C581CC3B25B45B5
:101ED000E9D309F1010000F0FF0905988145C4D359
:101EE000069848B104986044411E049891FBF0F0B4
:101EF000ACEB000000F0FF0CBCF1060F28BF012086
:101F000000D20020002804BF2DB0BDE8F08F594C4E
:101F100094F8B1000F282DD0FE8897F8285030464D
:101F2000FEF721F9F0B301680491416805918168D9
:101F30000691C1680791018AADF82010E1694E4A07
:101F4000401A82FB00208210A2EBE07000EBC00080
:101F5000420001F112000DF0ADF8E0690499016052
:101F600005994160069981600799C160BDF820100C
:101F7000018249E0E0699DF80020017B62F30001E5
:101F80000173BDF8041041809DF8061001719DF8A1
:101F90000120417962F3020141719DF8022062F350
:101FA000C60100E018E041719DF8032062F3C711FB
:101FB0004171DDF80910C0F80610BDF80D1041811F
:101FC0009DF80810417394F84110C1EB011189008C
:101FD000C1812DB0BDE8F08F208CE169401E00EB7F
:101FE000C000420001F112000DF064F82349E069DD
:101FF0000A6802604A6842608A688260CA68C26091
:10200000098A0182E0690680E0699DF80010027B80
:1020100061F300020273BDF8041041809DF80610C0
:1020200001719DF80130417965F3430263F30201C8
:1020300041719DF8023063F3C60141719DF8033090
:1020400063F3C7114171DDF80910C0F80610BDF83F
:102050000D1041819DF808104173027394F84110EE
:10206000C1EB01118900C1814FF6FF7101822DB0D2
:10207000BDE8F08F80030020398EE338761700200A
:102080002DE9F0410E46074614464FF49471F84886
:102090000DF037F8F64D0421012285F8447085F8DB
:1020A000456085F8291085F828202A800A2028878D
:1020B0004FF6FF73AB8528230F2E0CBF4FF03C0C5F
:1020C0004FF4B47CA5F826C04FF0340C85F824C03A
:1020D0004FF01E0C85F823C085F831304FF00F0CFF
:1020E00085F832C04FF0FF0C85F834C07DD1002F49
:1020F00018BF012F79D085F820304FF0020385F802
:1021000021304FF0000385F83B304FF0FE0C85F88E
:102110003CC085F83D0085F83E1085F83F3085F8D5
:10212000400085F83A20A188A980A079A871207A7A
:10213000E87160892881207885F81101607885F838
:102140001201A07885F81301E07885F81401E069A0
:10215000E860226A2A61626A6A61A26AAA61E26828
:10216000C5F818212269C5F81C216269C5F820212B
:10217000A2694FEA0111C5F824210CF0C2FFA87929
:10218000C10028690CF0BDFFE879010168690CF015
:10219000B8FF95F8110100EB40008100D5F8180157
:1021A0000CF0AFFF95F81201C100D5F81C010CF03E
:1021B000A8FF95F81301C0EBC0008100D5F82001FD
:1021C0000CF09FFF95F814014101D5F824010CF0A3
:1021D00098FF112E18BFBDE8F08128894100A86939
:1021E000BDE8F041FF220CF085BF85F8200085F89E
:1021F000211086E770B59E4DA626002405F17000DB
:1022000013F018F9EA6E002A08BF70BD2146304667
:1022100090470020E86670BD70B5954C78B10546D2
:10222000002604F1700013F005F9E26E002A08BFE1
:1022300070BD3146284690470020E06670BD8D484D
:10224000606794F8310000EB8000410004F17000F9
:10225000BDE8704013F09AB82DE9F047844D074669
:102260004FF00008A8790E464446002884BF4FF07E
:1022700002094FF0040A13D92A6932F83400B8422F
:102280000AD109EBC400105CB04205D10AEBC400CE
:10229000105813F03FF830B1A879641CA042EBD875
:1022A0004046BDE8F0874FF00108F9E72DE9F0411D
:1022B0006F4D06460027A8883C46002888BF4FF08F
:1022C0000C0815D9E86808EB0411405813F022F8FF
:1022D00070B9E86800EB04100088B04203D1E868E8
:1022E00000EB041704E0601C84B2A888A042E9D87F
:1022F0003846BDE8F0812DE9F0410C46054603F073
:102300004CF907465A480026267090F82E00B8B9B6
:102310002846FFF7CBFF050012D06F880021384612
:10232000FFF79AFF00281CBF0420207008D101216C
:102330003846FFF791FF002818BF032003D0207014
:102340003846BDE8F081687A10F0200F0CBF267087
:102350000120F4D1F4E72DE9F05F8346DDE90A8737
:102360008A46DDE90C040821002501EB88011E46A0
:10237000914688425CD3FC2020705846000A00BF7A
:1023800060705846C0B200BFA0705046000A00BF3F
:10239000E0705046C0B200BF20714FEA091040EA19
:1023A00016606071300CA071300AE0712672092548
:1023B0000026B8F1000F88BF4FF0000938D91FB3CD
:1023C00037F83600000A00BF6055681C85B237F840
:1023D0003600C0B200BF6055681C81B207EBC60072
:1023E00082780379D20142EA0312437942EAC302B6
:1023F000837942EA8302C3791A436254491C89B241
:10240000C0786054481C0EE0681C80B204F8059047
:1024100004F80090401C80B204F80090401C80B288
:1024200004F80090401C85B2701CC6B24645C6D365
:102430002846BDE8F09F0E4991F82E1000291CBFD8
:102440000020704710B5FFF731FF04001CBF607A11
:1024500010F0020F09D060880021FFF7FDFE58B18F
:1024600060880121FFF7F8FE30B1002010BD0000A8
:10247000F8070020F52140000120F7E72DE9F041A1
:10248000FF4F0546C4B097F82E0014468846002832
:102490001CBF44B0BDE8F0812846FFF7CCFF002800
:1024A00008BFA52604D0F86E002818BFB3260FD0A9
:1024B000FF224FF4867168460CF01CFEADF8025006
:1024C0008DF8088069463046A04744B0BDE8F081E9
:1024D000A7F868506426FC6603F05FF804A9CDE90C
:1024E0000261002401460094234642460194284696
:1024F000FFF731FF04AA31460AF024FE06461DA963
:102500002846FFF7F8FEDF4904ABCDE9004132462B
:102510009DF8741006F0A8FA44B0BDE8F0812DE9EA
:10252000FF5F8B46DDE91314DDE91156DDE90FA7E6
:102530000020DDF8388099460C293CBF04B0BDE886
:10254000F09F002020700098000A00BF6070009883
:10255000C0B200BFA0705846000A00BFE0705846E5
:10256000C0B200BF20710298000A00BF60710298DB
:10257000C0B200BFA07148EA0910E0715046000ADD
:1025800000BF20725046C0B200BF607267F31F15D3
:10259000A5723001E07204B00C20BDE8F09F2DE977
:1025A000F84FB74F8146884638690025D0F804A017
:1025B00012F03AFF0090B87900244FF0040B002885
:1025C00020D9386930F83410494505D1022101EB92
:1025D000C401415C414505D00BEBC406805912F0A3
:1025E00099FE08B125460DE038698159504612F030
:1025F000A9FE18B13869254650F806A0B879641CC0
:10260000A042DED838690BEBC50220F835900220D5
:10261000396900EBC50001F80080388FC0EB00106D
:1026200000EB8001009800EBC10039698850BDE8DB
:10263000F88F2DE9F047DFF8488289460746B8F859
:102640000460D8F80C500024B8F80400A04203D964
:10265000E86812F05FFE60B3B8F80400B04298BFBB
:10266000BDE8F087B9F1000F0DD0D8F80C000221B9
:1026700001EB0611455A00212846FFF790FF012182
:102680002846FFF78CFF02F093FFB84204BF4FF6D5
:10269000FF7006F0A9FB1021D8F80C0001EB061121
:1026A0000144A21B00EB0610BDE8F04712010CF03C
:1026B00001BD2888B84208BF2646641C1035C3E710
:1026C000F0B50C686E4FA3B0A0B1E9281CD04FF64E
:1026D000FF72214602F0B2F86B48F86497F82300C5
:1026E00023B000EB8000410007F14800BDE8F04056
:1026F00012F04CBE02F06EFC00EB8000810004F191
:102700000C0012F043FEE7E7A0880021FFF791FFDD
:10271000E0796426002814BF0825002597F82800D2
:10272000002818BF45F0040502F037FF01460020DD
:1027300007AA03900490CDE90562A27997F8323098
:102740000093CDE90102E28BA0882B46FFF7E7FE5C
:1027500007AA31460AF0F6FC4C4920ABCDE900311E
:102760000246209407AB00214FF6FF7006F07CF97B
:10277000B2E72DE9F043424E0446A5B006F1480009
:1027800012F0E6FD4FF0000880B100F083F8010080
:1027900004BF25B0BDE8F0834C6081F8088025B007
:1027A00006F15800BDE8F04312F02CB8E079642738
:1027B000002814BF082500254FF6FF798DF880808A
:1027C000207F401C207796F8280050B145F0040582
:1027D000A088FFF730FE20B1A08820A9FFF78BFD6D
:1027E00081463088E0833088401C308002F0D5FE7E
:1027F00007A9CDF80C80CDF81080CDE90571A1793D
:1028000096F83220CDE900280291B4F804C00146C0
:10281000E28B2B466046FFF782FE07AA39460AF094
:1028200091FC1A4921ABCDE900310246219407AB56
:102830009DF88010484606F017F925B0BDE8F083F2
:1028400038B5134811F0D2FF050008BF38BD287A0B
:1028500010B1012804D00FE06868FFF78AFF0BE091
:102860006C68E0790090A388A2796188208800F0E4
:102870006CF820462CF0BAF90020686038BD0000E2
:10288000F80700201922400041284000C1264000DE
:10289000500800202DE9F84F00252E464FF004087F
:1028A000FE4FA946002097F81121002A88BFD7F8CB
:1028B000181108D900EB400308EB8303CB5823B170
:1028C000401C8242F6D835BB04E000EB400001EB2F
:1028D0008005F8E707F1580011F088FF5FEA000A69
:1028E00019D09AF8080010B1012805D011E0DAF8E3
:1028F0000400FFF73EFF0CE0DAF80440E0790090B6
:10290000A388A2796188208800F01FF820462CF067
:102910006DF9CAF80490701CC6B2022E01D2002DC7
:10292000C0D02846BDE8F88FDC4A92F845000F2851
:1029300018BF7047DA48D06492F8230000EB80009B
:10294000410002F1480012F021BD2DE9F04F9DB089
:102950001D4616460F468046269CFFF76CFD002854
:1029600004BF1DB0BDE8F08FDFF8309399F8450043
:10297000112829D209F1480012F0EAFC20B399F895
:102980004500112824BF1DB0BDE8F08FFFF782FF7E
:102990005FEA000C04BF1DB0BDE8F08F002299F87B
:1029A0004500112855D299F812A10020BAF1000F64
:1029B0004FD9D9F81C114FF0020B062331F830E043
:1029C000BEF1000F42D121E04FF0640903A800944A
:1029D000CDE901902B4632463946404601F050FF82
:1029E00003AA49460AF0AEFB04461CA94046FFF77D
:1029F00082FCAC4B0021CDE9001303AB22469DF8CD
:102A0000701006F031F81DB0BDE8F08F0BEBC00E72
:102A100031F80EE0BEF1000F18D14FF0040E0EEBAE
:102A2000C00E31F80EE0BEF1000F0FD103EBC00E67
:102A300011F80EE0BEF1000F08D14FF0070E0EEBBB
:102A4000C00E11F80EE0BEF1000F1AD0401C8245F6
:102A5000B4D8002A04BF1DB0BDE8F08FA2F80080F2
:102A6000578096719580D4710120CCF804208CF8A1
:102A700008001DB009F15800BDE8F04F614611F0A3
:102A8000C1BE01EBC002E4E7F8B50D46064602F010
:102A90009AFD044602F081FD01462B460022304695
:102AA0000094FFF752FFF8BD704780687B4A017FB2
:102AB00092F82220914200D85BE601464FF6FF7261
:102AC000A52001F0BBBE2DE9F047DFF8D0C10F46CD
:102AD00001469CF814514FF00008089EDCF824C110
:102AE0004046002D88BF042413D90CEB4019D9F8B7
:102AF0000090B9F1000F08D004EB40193CF80990A0
:102B0000894502D14FF0010803E0401CC0B2854264
:102B1000EBD800242046002D2BD90CEB4019D9F816
:102B20000090B9F1000F1DD0401CC0B28542F4D80E
:102B3000FCB1A180A771E27100202660A36020771C
:102B4000E0835948C4E90404B8F1000F0DD002F045
:102B500041FA00EB8000810004F10C00BDE8F04771
:102B600012F014BC0CEB4014E2E72046BDE8F0473D
:102B7000FFE5B446BDE8F0474FF6FF72B42060476A
:102B8000464A30B492F8451000250F2902BF0020B4
:102B900030BC70470021B2F808C0BCF1000F84BF00
:102BA0004FF6FF7493690AD933F81120A24203D07B
:102BB000824201D1012502E0491C8C45F4D8284607
:102BC00030BC70472DE9FF5F0821DDE90E6ADDF8B2
:102BD0004080DDE91304DDE911970AEB08020025C6
:102BE00001EB82019B4688427ED3FD202070009835
:102BF000000A00BF60700098C0B200BFA0700198CA
:102C0000000A00BFE0700198C0B200BF20714FEA17
:102C10000B1040EA16206071A6710298000A00BFEE
:102C2000E0710298C0B200BF092500262072BAF1F7
:102C3000000F27D939F83600000A00BF6055681C1C
:102C400085B239F83600C0B200BF6055681C81B249
:102C500009EBC60082780379D20142EA0312437974
:102C600042EAC302837942EA8302C3791A43625477
:102C7000491C89B2C0786054481C85B2701CC6B229
:102C8000B245D7D80026B8F1000F32D937F8360050
:102C9000000A00BF6055681C85B207E0F8070020F5
:102CA0004128400029294000AB2A400037F836006F
:102CB000C0B200BF6055681C81B207EBC6008278C5
:102CC0000379D20142EA0312437942EAC3028379CB
:102CD00042EA8302C3791A436254491C89B2C0781C
:102CE0006054481C85B200E003E0701CC6B2B045D9
:102CF000CCD804B02846BDE8F09F2DE9F047DFF8B6
:102D0000ACA600248946BAF80450DAF80C70804664
:102D100026460C70BAF80400A04203D9F86812F0F5
:102D2000F9FAD8B1BAF80400A84206D8A0428FBF79
:102D30002546451E012089F800001022AE421CD213
:102D4000DAF80C0002EB061200EB06111044A5EBBA
:102D500006024FEA02120CF0ADF91BE03888B8F811
:102D60000010884208BF2546D8F80C00F968884250
:102D7000B8BF661C641C1037CCE70BD902EB0511F9
:102D8000DAF80C00761E0144721B00EB05101201EC
:102D90000CF090F9DAF80C0098E80E1000EB061031
:102DA00080E80E10BDE8F0872DE9F047DFF8FC85DC
:102DB0000646002498F807000C27254600281AD953
:102DC000D8F8140000EB05110988B14205D107EBD2
:102DD0000511405812F09EFA40B1681C85B298F86F
:102DE0000700A842ECD8002C7ED104E0D8F81400EB
:102DF00000EB0514F7E7B8F804000025002873D9A4
:102E0000D8F80C0007EB0511405812F083FA00289F
:102E10007ED1D8F80C0000EB05100088B04270D1CC
:102E2000D8F81420D8F80C004FF0000998F80710D3
:102E300000EB0515D2F80CA04C464846002988BF87
:102E40002B880DD902EB001CBCF800C09C4502D1B8
:102E500002EB001403E0401C80B28142F2D83CBB7C
:102E60000026002920D9D8F814002A8800EB061182
:102E70000988914205D007EB0614005912F04AFA6E
:102E800008B1B14610E0D8F814000159504612F0CC
:102E900059FA20B1D8F81400B14650F804A098F8B7
:102EA0000700761CB042DED8D8F8140000EB0914F5
:102EB0002888208068886080A888A080697A607AE5
:102EC00061F300006072E988E1802A7A217A62F376
:102ED000030121722A7A120962F307112172697AB9
:102EE000490861F3410000E012E020F00400607244
:102EF000E968E160697AC90861F3C400607207E0BB
:102F0000FFE7681C85B2B8F80400A8423FF678AF26
:102F10002046BDE8F087002908BF70472DE9F04F33
:102F20000D6880464E688C68DFF880A49FB015F06D
:102F3000FF004FF6FF774FF0000915D001281CBFA6
:102F40001FB0BDE8F08F002C04BF1FB0BDE8F08FAC
:102F50004FEA154B6088834518BF002E7ED0E0688D
:102F600012F0D8F9C8B374E0B8F1E90F30D1280CE9
:102F7000B8421CBFBAF80C01002829D04FEA15440A
:102F8000C5F307212046FFF70AFB00212046FFF783
:102F900050FBBAF80C210AF1800102A80CF08AF863
:102FA000ADF86E709DF80A008DF86C008DF86D908C
:102FB000CDF87090FE481BA9CDE90010CDF87490B3
:102FC000BAF80C2102AB00214FF6FF7005F04CFD62
:102FD000AAF80C911FB0BDE8F08FFFE794E80F004E
:102FE0008DE80F009DF80900290CADF8021040F0A3
:102FF0000200290A61F3451020F0010040F00400AE
:103000008DF8090012F010FA0146BAF82600C0EB5C
:10301000001000EB800001EBC0000390684604A99B
:10302000FFF76BFE054602F0C3FA298888420AD1F1
:1030300002F0C9FA297A01F00F01884204BF47F66D
:10304000FF7005F0D1FEADF80070ADF80270CDF85C
:103050000C905846FFF7A8FEA04200E011E01CBF0C
:10306000002801F0A6FC86F808909AF829001FB005
:1030700000EB8000410006F10C00BDE8F04F12F0BB
:1030800085B9FFF791FE0746B8F1000F13D0B8F1EC
:10309000E90F04D1C5F307215846FFF780FAE0682D
:1030A00012F038F9A7421EBF002FF86812F032F96B
:1030B000AAF80C9108E0204601F07BFCA7421EBF55
:1030C000002F384601F075FC002E04BF1FB0BDE88C
:1030D000F08F86F80890C6F814909AF829001FB06F
:1030E00000EB8000410006F10C00BDE8F04F12F04B
:1030F0004DB92DE9F0416427A4B0002819BF4FF065
:10310000FF08002924B0BDE8F0810D684E688C6886
:10311000E92803D1E1B2B0B2FFF741FAC4F30740A6
:10312000FF2804BF24B0BDE8F08102F036FA002188
:10313000A04BCDE9033107AACDE90572320C00920C
:10314000C4F30743CDE90131C4F307232C0C024635
:10315000A9B22046FFF736FD06462046FFF76BF979
:10316000002804BF24B0BDE8F08107AA39463046E4
:1031700009F0E8FF04468DF88A80280C23A9FFF7A0
:10318000BAF89DF88C108C4B20AACDE90023ADF83D
:1031900084008DF8881007AB224605F065FC24B04A
:1031A000BDE8F0812DE9F04F8468A5B0002C04BF84
:1031B00025B0BDE8F08F4FF064090026374620881F
:1031C000FFF7F2FDDFF8E4A10500B34608BFB4F84D
:1031D000008016D0687A10F0040F04BFB5F80280A2
:1031E000C0F340170DD0C4F814B09AF8290000EBD2
:1031F0008000410004F10C0012F0C8F825B0BDE8D1
:10320000F08F9AF845000F2814BF608802F0C5F9C6
:10321000239055B1687AC0F3C10030B1022808BFCD
:103220000E2602D0032808BF0F2602F0CCF9009624
:10323000CDE904B907A9CDF80CB00691CDE901B0EC
:10324000A079BAF8002000F008032088239901F043
:1032500046FBBAF8001007AA491CAAF80010494614
:1032600009F070FFADF882809DF81E108DF8801077
:103270008DF881700121CDE9214521724C4A20A9A8
:10328000CDE90012024607AB3946404605F0ECFB9B
:1032900025B0BDE8F08F2DE9FF4F81B00446DDE990
:1032A00012CADDE90F76DDF844B0DDF8388003F0AE
:1032B0000303BCF1000F08BF01254BD0E188A1F545
:1032C0007F40FF381BBFA1F5FE40B0F1FF00012594
:1032D0000025B4F80490607A91451CD110F0010FDC
:1032E00019D0C0F3C109994511D194F80890B6EBF3
:1032F000191F0AD1414506D109F00F01B9428CBF0F
:10330000012500251EE01DD91AE01BD218E010F09F
:10331000180F15D016E010F0010F11D0914504D808
:10332000A2EB0901B1F5004F06DB4A4506D2A9EB35
:103330000201B1F5004F01DB012100E0002109B1DC
:10334000012503E0D5B3BCF1000F03D040F001002C
:103350006072A280A4F80680207ABBF1000F67F3A8
:10336000030066F30710207202986080607A63F3AE
:10337000C4006AF34510607227D040F0020060720A
:1033800069462046FFF7B9FC064602F011F931887C
:1033900088420AD102F017F9317A01F00F01884210
:1033A00004BF47F6FF7005F01FFD08E0F807002096
:1033B000172F400020090020F330400005E04FF6B1
:1033C000FF70208060800021E16012F02DF801463E
:1033D000FE48C08CC0EB001000EB800001EBC00089
:1033E000E06005B02846BDE8F08F70B5F74E0024C8
:1033F000B088002888BF0C250CD9F06805EB0411B3
:10340000405811F087FF08B1002070BDB088641CDF
:10341000A042F2D8012070BD2DE9F74FDFF8AC9340
:1034200007460026D9F814008A463446D0F80C80A6
:1034300099F80700002888BF4FF00C0B1FD9D9F866
:10344000140000EB04110988B94205D00BEB0415F8
:10345000405911F05FFF08B1264610E0D9F814007A
:103460004159404611F06EFF20B1D9F814002646AC
:1034700050F8058099F80700641CA042DFD8D9F8FD
:10348000140000EB061402F09EF82780A4F802A0B6
:103490000021A180617A21F0010247F6FF71E180ED
:1034A000217A60F3030160F307112172029922F07F
:1034B0001E0061F34510607211F0B6FF0146B9F8C5
:1034C0002600C0EB001000EB800001EBC000E060C4
:1034D00003B02046BDE8F08F2DE9FF4FA3B00746AB
:1034E000DDE9366590461046DDF8D4B0DDF8E090B1
:1034F000FFF75AFC044602F050F8404503D040461E
:10350000FFF73EFB00B10120079001204FF0000AB9
:1035100020909CB1C14507D1607A10F0010F09D00D
:10352000A1883098814205D1C14505D0A188309845
:10353000814201D0012000E00020209000200B906B
:10354000012F14D08CB3627AA188309812F0010F49
:103550000BD0814203D8421AB2F5004F05DB8842F6
:1035600024D2081AB0F5004F20DB01201FE0B4B1CF
:10357000627AA188309812F0010F0BD0814203D8F3
:10358000421AB2F5004F05DB884205D2081AB0F5A1
:10359000004F01DB012000E0002080F0010A4846D6
:1035A0002699FEF759FE0B900FE003E0002090F003
:1035B000010F08D148462699FEF74EFE002808BFA5
:1035C0004FF0000A01D04FF0010ABAF1000F1CBF02
:1035D00027B0BDE8F08FFF2E3CBF701CC6B2BBF118
:1035E000000F1CBFABF1010000F0FF0B34993998BC
:1035F00008444FF6FF7188422CBF4FF6FF7080B22F
:103600003490339800281CBF681CC5B20798002866
:103610001CBF27B0BDE8F08F2CB949464046269A1A
:10362000FFF7FAFE044669484FF0000A8088002838
:1036300010D96648C1680C2000EB0A10085811F038
:1036400069FE08B1002006E060480AF1010A80889E
:103650005045EED8012020B1329807F01AFA2844DC
:10366000C5B201222699002F14BF01200020029527
:103670000591CDE903023498CDE90006494620467C
:10368000329B309AFFF707FE2099069088431CBFB3
:10369000012020900B99069808421AD04B484FF011
:1036A000000A8179002984BF4848006911D930F89F
:1036B0003A204A4509D111F0B7FE411E434802693C
:1036C000042000EBCA00115003E00AF1010A514541
:1036D000EDD80698F0B301F06BFF404508D1DDF856
:1036E000D0A001F07BFF50451CBF504605F07CFB8D
:1036F000C14543D0339800904846FFF755FB04007E
:1037000005D149460846269AFFF786FE04462F480B
:103710004FF0000A8188002910D92C48C1680C207C
:1037200000EB0A10085811F0F5FD08B1002006E082
:1037300026480AF1010A80885045EED8012030B1B0
:10374000329807F0A6F900990844C0B200900CB175
:10375000002200E012E02699381C18BF0120009BCF
:1037600005910293CDE9030201213998CDE90001C9
:1037700049462046329B309AFFF78DFD0798002876
:103780001CBF27B0BDE8F08F64202190002000907E
:1037900002204FF6FF7A229001F0FFFE01462498A6
:1037A000814203D0FFF7ECF900287AD08FB3DFF81D
:1037B0001CB000269BF8140100289CBF27B0BDE870
:1037C000F08FDBF8240100EB461501E0F80700203C
:1037D0002968B9B1042101EB4611405A404511D185
:1037E0000020019005F10C0011F024FED5F800C076
:1037F000BCF1000F06D0A9884A46AB680198E047A3
:1038000000202860701CC6B29BF81401B042D8D8C2
:10381000C9E0FFE70698002804BF27B0BDE8F08F95
:10382000CDF8048024980590DFF8D0B431980025B5
:10383000DDF8C090049003959BF81301A84600287A
:103840009CBF27B0BDE8F08FC8EBC8060C2000EB8A
:103850008600DBF820110290084411F079FD50B980
:103860000821DBF8200101EB8601415C002908BF3B
:1038700000EB860530D0DBF82011019831F82620C6
:10388000824229D1042000EB8600085A48450ED117
:10389000C8EBC8034FF0140000EB83000A58002A5D
:1038A00000E03DE004BF01EB86020A507BE004D853
:1038B000A9EB0002B2F5004F06DB814506D2A0EB72
:1038C0000900B0F5004F01DB012000E0002018B135
:1038D0000298084411F0AEFD08F1010000F0FF0865
:1038E0009BF813014045AFD80398E8BBE5B30198B6
:1038F00028809BF84500112824BF05986880A5F80A
:1039000004900498A871FE48C5E904059BF82900B5
:1039100000EB8000410005F10C0011F037FD42E0A2
:103920000F2E84BF27B0BDE8F08FBBF1000F19BF89
:103930002098002827B0BDE8F08F07A82199CDE98D
:103940000510CDE9036534983299CDE90010DDE921
:1039500030232498CDF808B04146C7B100F0BFFF2E
:103960000090012F17D000E01DE0319810F0040FF7
:1039700019D0012F0FD02498FEF798FC04000ED028
:10398000607AB4F802A0C0F3401022900BE0FEF77A
:10399000C6FD0090E7E72498FFF706FAEEE7002F50
:1039A00018BFDDF890A00098002804BF27B0BDE83C
:1039B000F08F07AA219909F0C5FB054677B9AAF54A
:1039C0007F40FF380AD08C2D08D8CC4E2A4607A954
:1039D00006F180000BF06EFBA6F80C51ADF80AA0C2
:1039E0008DF8087022988DF8090000200390012FAF
:1039F0000CBF04940490C34902A8CDE9000107ABB1
:103A00002A465046229905F02FF827B0BDE8F08FDE
:103A10002DE9FF4FADF5337D0027DDE9C0A61C463B
:103A20008946BAF10C0F24BF307800287ED0BAF155
:103A30000C0F24BF307801287DD0BAF1090F24BFC4
:103A40003078022800F0DC80BAF1080F24BF30780B
:103A5000FC2800F03A81BAF1080F24BF3078FD2825
:103A600000F0B582BAF1060F24BF3078FE2800F0CE
:103A70002A84BAF1070F07BF3078FF280DF5377D8C
:103A8000BDE8F08FADF80870ADF80C708DF81070CF
:103A90008DF81470B178707841EA0020ADF8080014
:103AA0003179F07841EA0020ADF80C007079000916
:103AB0008DF81400B0798DF8100001F06EFD01460C
:103AC000BDF80800814207D0FFF75AF8002804BF6C
:103AD0000DF5377DBDE8F08F884CB4F80C01002857
:103AE00023D004A8CDE90070B4F80E2104F16403DA
:103AF00049469DF8140006F09FFF04F18002B4F8D7
:103B00000C11CDE9001294F8671094F8242091422A
:103B10002CBF0023012394F81011B4F80EC1024603
:103B20006046FFF775FFA4F80C7100E003E00DF5A7
:103B3000377DBDE8F08FADF82870ADF82C70ADF88A
:103B400030708DF83470ADF838708DF83C708DF8A9
:103B500040708DF844708DF84870307800280CBFA4
:103B600001250025B178707841EA0020ADF82800E1
:103B70003179F07841EA0020ADF82C00B179707904
:103B800041EA0020ADF83000F07901098DF83410D9
:103B900000F00F008DF84800717A307A41EA002079
:103BA000ADF83800B07AB39A010900F00F008DF833
:103BB0003C108DF84000F07A06AE00098DF8440004
:103BC000C1B29DF84000B59B86E80F009DF83C000F
:103BD000BDF838109DF84820CDE90410CDE9022445
:103BE0009DF83410BDF83000CDE9000185F00100EA
:103BF0004B46BDF82C20BDF82810FFF76DFC94E76C
:103C0000ADF87070ADF87C70ADF878708DF87470A8
:103C1000B178707841EA0020ADF870003179F07821
:103C200041EA0020ADF87C007579F179B07941EA7C
:103C30000020ADF87800307A00098DF87400BDF8E6
:103C40007000FEF7F8FBD0B39DF8740000281CBF8D
:103C5000401E8DF8740001F0A0FC0146BDF8700014
:103C600081422CD0FEF78CFF48BB9DF8744034B3E2
:103C7000BDF87080BDF87C90BDF878A06426404601
:103C8000FEF7D9FBD8B103A80094CDE901605346F3
:103C90002A464946404600F0F3FD03AA314609F0A2
:103CA00051FA044620A94046FEF725FB164903AB0E
:103CB000CDE9007122469DF8801004F0D5FE002168
:103CC000BDF87800FEF7B5FC2FE7642027900020B0
:103CD000ADF88400ADF894008DF898008DF8800060
:103CE0008046289020A80090084FB178707841EA6B
:103CF0000020ADF884003179F07809E0F807002061
:103D0000A5314000172F4000A92A400020090020BB
:103D100041EA0020ADF894007079092501098DF879
:103D20009810317A00F00F0041EA0060B179F27921
:103D3000090441EA022140EA010BAAF10900C11776
:103D400000EB9170C0F387008DF880004FF0000AFF
:103D5000002827D97419705D617841EA002027F89E
:103D60003A00A078C10907EBCA008170A178C1F3BD
:103D700002110171A178C1F3C0014171A178C1F3B1
:103D800080018171A17801F00301C171E178C170F6
:103D9000281D85B20AF1010000F0FF0A00980078A2
:103DA0005045D7D89DF88000FE4C10283ED201F037
:103DB000F4FB9DF8801024F831009DF8980006F07F
:103DC00076FE38B19DF88000B59904EBC000C17053
:103DD000002106E09DF88000002104EBC000C170C6
:103DE00001218170F04890F83A0040B1B39801F099
:103DF00017FC9DF8801004EBC101087105E09DF8E7
:103E00008010002004EBC10108719DF88010002291
:103E100004EBC100B9F1010F8271C27180F8059005
:103E200004BF07220271481C8DF8800001F0B5FB29
:103E30000146BDF88400814202D0FEF7A1FEA8B180
:103E40004FF0010801F0D6FB054601F0B1FBBDF8CB
:103E50009410884221D101F0A0FBA84203D028464B
:103E6000FEF78EFEC8B10120289016E0BDF8840050
:103E7000FEF7E1FA002808BF4FF001080DD0BDF8A9
:103E80008400FEF713FA40B19DF88010407A04EBED
:103E9000C101C0F3401001F8020CFF208DF8920020
:103EA00007ADB8F1000F4AD0BF4E96F84500112873
:103EB00008D3BDF88400FEF763FE002818BFBDF8E4
:103EC000840001D101F069FB96F845100F2918BF55
:103ED000064630D0BDF89400FEF7E8F940B1407ACC
:103EE000C0F340119DF8800004EBC00000F8021CF4
:103EF00027990020CDE904014FEA1B410695039460
:103F00009DF880200091CDE901209DF8983032463F
:103F1000BDF88410BDF89400FEF754FE054601F08C
:103F20003CFB0146BDF88400814218BFFEF728FE25
:103F3000BDF8944028E001F030FB0646CAE79DF842
:103F40008010279803950091CDE901405B469DF8CC
:103F50009820BDF89410BDF88400FEF7FCF90546E2
:103F6000BDF88440ADF88840BDF89400ADF88A00F3
:103F70009DF898008DF891004FEA1B40ADF88E0037
:103F80009DF880008DF892002046FEF754FAC0B1EB
:103F900007AA2846279909F0D5F8054629A92046F9
:103FA000FEF7A9F99DF8A410DFF800C2ADF88C0067
:103FB0008DF8901022ABCDE9003C07AB2A4604F007
:103FC00053FD2898002818BF08F09AFBADE508A912
:103FD00001910DF1250B0DF126080AAC2AADB1783F
:103FE000707841EA0020ADF81C003179F07841EAA0
:103FF0000020ADF81E00707900098DF82400717959
:10400000B07901F00F0140EA0120ADF82200317AC9
:10401000F07941EA0020ADF82000092000218DF858
:104020002510011D009151459CBF9BF800101029DF
:1040300028D23718305C797841EA00202080B8789F
:10404000C009A070B878C0F302102071B878C0F32E
:10405000C0006071B878C0F38000A071B87800F03B
:104060000300E071F878E0709BF800100098491C9C
:104070008BF800100199228880B209888A4218BF03
:104080000834CED14FF0000B88F800B027E0341888
:10409000305C617841EA002025F8020BA078C00965
:1040A00005F8020BA078C0F3021005F8040BA07805
:1040B000C0F3C00005F8030CA078C0F3800005F839
:1040C000020CA07800F0030005F8010CE07805F878
:1040D000050C98F80010B8B2491C88F80010071DAC
:1040E00057459CBF98F800101029D0D39DF82600A2
:1040F000102874D201F051FA9DF8261007AC04EB99
:10410000C101A1F88C009DF8240006F0D0FC68B134
:104110009DF8260004EBC00080F88EB09DF82610B4
:10412000B59804EBC10181F88F000CE09DF82610D2
:10413000012004EBC10181F88E009DF8260004EBFC
:10414000C00080F88FB0184890F83A0048B1B39892
:1041500001F066FA9DF8261004EBC10181F8900089
:1041600005E09DF8260004EBC00080F890B09DF8B3
:104170002600B9F1010F04EBC00080F891B09DF862
:10418000260004EBC00080F892B09DF8260004EBF6
:10419000C00080F893B09DF8260004EBC00080F8C2
:1041A000919005E020090020F8070020F33040003E
:1041B00006D19DF82610072004EBC10181F890007C
:1041C000BDF81C00FEF772F850B19DF82610407A39
:1041D00004EBC101C0F3401081F892000CE010E044
:1041E00001F0DBF9BDF81C10884205D19DF82600CE
:1041F00004EBC00080F892B09DF82600401C8DF8BA
:10420000260001F0CAF90146BDF81C00814202D027
:10421000FEF7B6FCB8B1BDF81E00002607ADFE4C97
:10422000B4F8681088427FF480AC04F1700011F09B
:1042300001F9E26E002A3FF478AC294630469047F7
:10424000C4F86CB071E42AA90AAACDE903214FF49D
:10425000C8744AA8CDE905409DF826209DF8251090
:10426000BDF822000292CDE900019DF82430BDF88E
:104270002020BDF81E10BDF81C00FEF7A3FC05466B
:10428000BDF81C00FEF7D7F800283FF44EAC4AAA50
:104290002146284608F056FF0446FF208DF8C2024A
:1042A000BDF81C00B1A9FEF726F89DF8C412DFF88E
:1042B0006CC3ADF8BC028DF8C012AEABCDE9003CCA
:1042C0004AAB22465CE0ADF87C70ADF878708DF8B2
:1042D0008070B178707841EA0020ADF87C003179C7
:1042E000F07841EA0020ADF87800707900098DF887
:1042F000800001F052F90146BDF87C00814204D0F3
:10430000FEF73EFC00283FF410ACBDF878A09DF805
:104310008050FF208DF808006426BDF87C80B59C95
:104320005046000A00BF8DF809005046C0B200BFD9
:104330008DF80A004046000A00BF8DF80B00404689
:10434000C0B200BF8DF80C0028018DF80D008DF86B
:104350000E40072002AA314608F0F4FE0246BDF8DE
:104360007800ADF86E009DF80A108DF86C10AC491D
:104370001BABCDE900318DF86D901C9702AB49461F
:1043800004F072FBFFF7D1BB2DE9FF4FABB0DFF8B4
:104390008882DDE93A45DDE9389698F82E009A469C
:1043A00093460F4600281CBF2FB0BDE8F08F0C2CA1
:1043B00024BF2878002826D00C2C24BF2878012878
:1043C00021D0082C24BF2878FC281CD0082C24BF1E
:1043D0002878FD2817D08DF808208DF809308DF841
:1043E0000A908DF80B602946204600F0B8FA02AB1F
:1043F00039462B9A06F039FBCDE9004598F8241090
:10440000B1427CD9B0E02946204600F0A8FA2A90B3
:1044100088F864B088F865A088F8669088F86760C6
:104420004FF0000997B18DF89F90FF208DF89C0008
:104430008DF89D900DF19C0A8DF89E9002AA794806
:104440002B990DF027FC00287CD0A5E028A92B98FB
:1044500004F0C5FB00281CBF9DF8A210FF2957D10E
:1044600098F83510002953D08C2C84BF2FB0BDE8AC
:10447000F08F2246294608F180000AF01BFEA8F8BA
:104480000C412B9CA8F80E4188F8107164262A9DD7
:1044900001F083F80746FE208DF808002046000A48
:1044A00000BF8DF809002046C0B200BF8DF80A0099
:1044B0003846000A00BF8DF80B003846C0B200BF76
:1044C0008DF80C0028018DF80D00062002AA314657
:1044D00008F038FE0246B8F80E01ADF86E009DF8FF
:1044E0000A108DF86C1098F810118DF86D10CDF839
:1044F00070904B4B0DF16C0CCDF8749000E035E0F2
:10450000CDE900C302AB04F0AFFA2FB0BDE8F08FE5
:1045100098F8676002A900281ABF9DF8A220FF2A18
:10452000002112D09DF8A5008DF80B008DF8082011
:104530009DF8A3208DF809209DF8A4208DF80A206D
:10454000B04200E01BE038BF064608F16403CDE945
:104550000019DDE92A02494606F06EFACDE9004568
:1045600098F82410B14201D9012300E0002302464B
:1045700039462B98FFF74CFA2FB0BDE8F08FBDF805
:10458000100048B19DF80C008DF89F008DF89C90AC
:10459000B04238BF064601E04FF0000ACDE900A95D
:1045A000DDE92A0208F16403394606F045FACDE94F
:1045B000004598F82410B142D8D9D5E7F0B585B0B8
:1045C0001C4615460F46064600F0FDFF9DF80820E4
:1045D0009DF809C060F3030260F3071265F3451C00
:1045E0000021ADF804102CF01D00ADF8006047F676
:1045F000FF718DF8082040F00200ADF80270ADF8B0
:1046000006108DF8090010F00FFF0349CA8CC2EBA9
:10461000021202EB820107E0F8070020F3304000AD
:10462000172F40001B02000800EBC1000390214639
:104630006846FEF762FB05B0F0BD70B586B00C466B
:104640000546FDF733FEF54E002837D00FC88DE83C
:104650000F0010F0E9FE0146F08CC0EB001000EBFB
:10466000800001EBC00003909DF8090004A940F010
:1046700002008DF809006846FEF73FFBBDF8020016
:10468000A8421BD00546FDF711FEB8B10FC88DE852
:104690000F0010F0C9FE0146F08CC0EB001000EBDB
:1046A000800001EBC00003909DF8090004A940F0D0
:1046B00002008DF809006846FEF71FFB002C04BFBE
:1046C00006B070BD0024B17900298EBF306906B0F4
:1046D00070BD30F83420AA4209D110F0A5FE0422A2
:1046E000316902EBC402401E885006B070BD621CE6
:1046F00094B2A142EDD806B070BDC8494A8D521C93
:104700004A85888570472DE9F041C44F04468846A4
:10471000B888A04298BFBDE8F0810C21F86801EB91
:104720000411405810F0F6FD002806BFFE6825462B
:10473000BDE8F081B888A84207D9F06810F0EAFD1A
:10474000002804BF6D1C1036F4D0B8F1000F0CD057
:10475000F968022000EB04100E5A00213046FDF7E4
:104760001EFF01213046FDF71AFF00F021FFF96816
:1047700001EB04110988884204BF4FF6FF7004F072
:1047800033FB1021F86801EB041101442A1B00EBF4
:104790000410BDE8F04112010AF08CBC2DE9F04193
:1047A0004FF000080E460746454610F03DFE9B4A76
:1047B000014600249079002886BF02231269BDE8D3
:1047C000F08132F834C0BC4507D103EBC40C12F8B9
:1047D0000CC0B44501D1254607E0641CA042F0D8C6
:1047E000B8F1000F08BFBDE8F081481E042101EBBD
:1047F000C5015050BDE8F08170B5054600F0CDFE12
:104800000446864890F82E0028B92846FDF74EFD4C
:10481000002818BF4488204670BD70B57F4E002424
:10482000F568B088A04207D9E86810F073FD002849
:1048300004BF641C1035F4D0204670BD70B5054629
:1048400016460C4601F10C0010F0F4FDD4F800C03F
:10485000BCF1000F06D0A18832462846A368E04785
:1048600000202060A52D18BF70BDA088FDF71EFD9B
:10487000002818BF70BDA088BDE8704008F065BB77
:104880002DE9F0478146DDE909C40020089D1F4657
:1048900016468846BCF1090F38BFBDE8F0870220F4
:1048A00020704846000A00BF60704846C0B200BF92
:1048B000A0704046000A00BFE0704046C0B200BF92
:1048C000207166713846000A00BFA0713846C0B238
:1048D00000BFE071280120720920BDE8F0872DE9B2
:1048E000FF5F8B46DDE91314DDE91156DDE90FA703
:1048F0000020DDF8388099460C293CBF04B0BDE8A3
:10490000F09F012020700098000A00BF607000989E
:10491000C0B200BFA0705846000A00BFE070584601
:10492000C0B200BF20710298000A00BF60710298F7
:10493000C0B200BFA07148EA0910E0715046000AF9
:1049400000BF20725046C0B200BF607267F31F15EF
:10495000A5723001E07204B00C20BDE8F09F024661
:104960002E480C2A90F8320024BF0B78002B1CD064
:104970000C2A24BF0B78012B17D0082A24BF0B78F0
:10498000FC2B0ED0082A24BF0B78FD2B09D0062A59
:1049900024BF0B78FE2B04D0072A06BF0A78FF2A13
:1049A000704748794FEA10107047C87900F00F003F
:1049B000704738B50446C06810F0ACFC002818BF3A
:1049C00038BD607A40F00600607210F02DFD01469F
:1049D0001248C08CC0EB001000EB800001EBC0005F
:1049E000E06069462046FEF788F9054600F0E0FDE4
:1049F000298888420AD100F0E6FD297A01F00F01EA
:104A0000884204BF47F6FF7004F0EEF94FF6FF70DE
:104A1000208060800020E06038BD0000F8070020A2
:104A20002DE9F84F14460122FB4E002506287DD0C3
:104A300002274FF00A0B4FF4167A4FF0A7080C2804
:104A400075D0A0F100634FF00409C83B70D00D2869
:104A50006FD012286ED033461E289B796BD01F284A
:104A600000F04281A0F1006CBCF1D30C7ED0F028A4
:104A700000F04D8196F845C0BCF1110F05D32428F4
:104A800000F04F81232800F05681A0F1006CBCF1AA
:104A9000C90C00F03281A0F1006CBCF1CF0C00F029
:104AA0005381A0F1006CBCF1D00C00F058810A28B1
:104AB00000F06B81132800F07281142800F07981D6
:104AC000152800F08081162800F08781172800F053
:104AD0008E81182800F09581192800F09F811A28EE
:104AE00000F0A5811B2800F0AB81212800F0B181E6
:104AF000032800F0B781042800F0BD81052800F0EC
:104B0000C381092800F0C981A0F1006CBCF1D50C6B
:104B100000F03081A0F1006CBCF1DB0C7DD0A0F185
:104B2000006CBCF1DF0C00F0C18105E03CE044E02A
:104B30002DE09FE0A6E0AEE0A0F10063E33B00F0D3
:104B4000D581A0F10061E43900F0FF81D02800F0A8
:104B50000582D12800F00B82D22800F01182D328E0
:104B600000F01782D42800F01D8200E078E0D528FC
:104B70001EBFB1202070BDE8F88FA27206F140017F
:104B800004F10B000AF096FA2570BDE8F88FFFF7E4
:104B900044FE00904A4684F80A90694604F10B00EE
:104BA0000AF088FA00F0A0B9A27206F1290104F116
:104BB0000B000AF07FFA00F097B9B08888424BD911
:104BC000ADF8005084F80AB0F06807EB011200EB72
:104BD00001100088A4F80B00F06810440622008839
:104BE000A4F80D00F06802EB011210440088A4F84C
:104BF0000F000820F26800EB0110105C020142EA8D
:104C0000101060740920F26800EB011912F8090015
:104C1000C0F34010A0740C2000E06EE0F26800EBDE
:104C20000117D05910F076FBB0B9F06810F8090000
:104C300010F0020F10D010F0F7FBF168C959401ABC
:104C400000F1818100F2572090FBFAF0ADF80000EE
:104C5000A4F8130000F048B984F80080BDE8F88F8C
:104C6000A27206F1300104F10B000AF023FA25705C
:104C7000BDE8F88FA27206F1280104F10B000AF0DA
:104C800019FA31E13A46A77206F1260104F10B0048
:104C90000AF010FA28E18B42DED9ADF80050052069
:104CA000A072306907EBC10200EBC10009EBC1073C
:104CB0000088A4F80B003069805C60733069C059CB
:104CC00010F028FB60B910F0AFFB3169C959401AE8
:104CD00048BF404200F2572090FBFAF0ADF80000C8
:104CE000BDF80000E081FFE03A46A77206F1380106
:104CF00004F10B000AF0DEF9F6E03A46A7724649E5
:104D000004F10B000AF0D6F92570BDE8F88FA27205
:104D100006F12E0104F10B000AF0CCF92570BDE874
:104D2000F88FA27206F12F0104F10B000AF0C2F90C
:104D30002570BDE8F88F308988428DD9A772B06997
:104D400000EB41000088CDE03A46A77206F12A0147
:104D500004F10B000AF0AEF92570BDE8F88F3A4671
:104D6000A77206F12C0104F10B000AF0A3F92570DB
:104D7000BDE8F88F3A46A77206F1360104F10B0040
:104D80000AF098F92570BDE8F88FA27206F11C01AF
:104D900004F10B000AF08EF92570BDE8F88FA272BD
:104DA00006F11D0104F10B000AF084F92570BDE83D
:104DB000F88FA27206F11E0104F10B000AF07AF9D5
:104DC0002570BDE8F88FA27206F11F0104F10B00F7
:104DD0000AF070F92570BDE8F88FA27206F1200183
:104DE00004F10B000AF066F92570BDE8F88FA27295
:104DF00006F1210104F10B000AF05CF92570BDE811
:104E0000F88FA27206F1220104F10B000AF052F9A8
:104E10002570BDE8F88F0000F8070020A27206F1A7
:104E2000230104F10B000AF045F92570F1E7A272A5
:104E300006F1240104F10B000AF03CF92570E8E7C3
:104E4000A27206F1250104F10B000AF033F9257076
:104E5000DFE7A27206F1310104F10B000AF02AF932
:104E60002570D6E7A27206F1320104F10B000AF0B8
:104E700021F92570CDE7A27206F1330104F10B0090
:104E80000AF018F92570C4E7A27206F1340104F1A2
:104E90000B000AF00FF92570BBE7A27206F135018D
:104EA00004F10B000AF006F92570B2E7ADF80050E6
:104EB0004FF00008002B12D9306909EBC8014058A7
:104EC00010F028FA20B9BDF80000401CADF8000031
:104ED00008F101001FFA80F8B0794045ECD8A772BC
:104EE000BDF80000A4F80B00257092E70846FDF716
:104EF000DDF906003FF4B0AEADF8005084F80AB01A
:104F00003088A4F80B007088A4F80D00F088A4F88D
:104F10000F00307A010141EA10106074707AC0F31A
:104F20004010A074F06810F0F5F900287FF494AEFA
:104F3000707A10F0020F3FF48FAE10F075FAF1683E
:104F4000401A7FF57FAE40427CE6A27206F13A013C
:104F500004F10B000AF0AEF825705AE7A27206F1D0
:104F60003B0104F10B000AF0A5F8257051E7A2728D
:104F700006F13C0104F10B000AF09CF8257048E7AB
:104F8000A27206F13D0104F10B000AF093F82570BE
:104F90003FE7A27206F13E0104F10B000AF08AF825
:104FA000257036E7A27206F13F0104F10B000AF00A
:104FB00081F825702DE700B585B001208DF810002F
:104FC00001A8009004AB01220021F84803F0BEF9CB
:104FD00005B000BD00B593B06A460021112003F072
:104FE000B3F99DF80B0013B000BD2DE9F04194B06A
:104FF0000025EF4E1A9C0F4606287CD04FF0A70CD8
:105000001E2879D01F2878D00C2877D0A8210D2809
:1050100000F03881122800F04581A0F10068B8F155
:10502000D3086CD0F02800F05B8196F84580B8F189
:10503000110F05D3242800F06381232800F070812C
:10504000A0F1006CBCF1C90C00F03481A0F1006C3F
:10505000BCF1CF0C00F07E81A0F1006CBCF1D00C53
:1050600000F080810A2800F08D81132800F09281E1
:10507000142800F09F81152800F0A781162800F061
:10508000AF81172800F0B881182800F0C1811928D5
:1050900000F0C7811A2800F0CD811B2800F0D381D1
:1050A000212800F0DD81032800F0E381042800F0CE
:1050B000F281052800F0FF81092800F00C82A0F1A0
:1050C00000674FF0B00CD53F7DD0A0F10067DB3F0B
:1050D00000F05081A0F10067DF3F1CBFA0F1006726
:1050E000B7F1E30778D0A0F1006CBCF1E40C00F05C
:1050F0000182D02804E02DE041E072E079E01DE07B
:1051000000F00482D12800F01182D22800F01E8223
:10511000D32800F02882D42800F03282D5281BBF83
:10512000B1202070012A14B018BFBDE8F0811878B2
:10513000322898BF86F840004DD9AFE0012A1CBF45
:1051400014B0BDE8F0811878002818BF012086F857
:105150003000FBE0012A1CBF14B0BDE8F0811F78CD
:105160006A460021112003F0EFF89DF80B00B842C9
:105170008EBF86F8297014B0BDE8F081E6E0B07902
:10518000B84229D98A48052A006900EBC70007D030
:10519000002A04BF056045601DD014B0BDE8F08151
:1051A0001988018098780222316902EBC70200F069
:1051B0000100885410F038F90146308FC0EB001020
:1051C00000EB800000E007E001EBC0000422316941
:1051D00002EBC7028850B9E084F800C014B0BDE803
:1051E000F081022A07BF1888308714B0BDE8F0812B
:1051F000ACE0B088B842EFD90A2A09D0002A1CBF17
:1052000014B0BDE8F08100213846FFF77CFA9DE03C
:105210001888ADF800005888ADF802009888ADF8FD
:105220000600987901099DF8080061F303008DF8E4
:105230000800997961F307108DF80800D8799DF876
:10524000091060F345118DF809101889ADF81000A8
:1052500010F0EAF8BDF81010ADF80450C1EB0111E0
:1052600001EB810100EBC10003909DF8090005A945
:1052700020F0050040F002008DF809006846FDF7B7
:105280003CFD63E0012A09D11878012808BF0120FC
:1052900038BF002098BF86F8280057D9217014B075
:1052A000BDE8F081022A07BF1888F08414B0BDE879
:1052B000F0814BE0022A1CBF14B0BDE8F0811888D1
:1052C0003080257001208DF8100001A8009004ABFB
:1052D00001220021354803F039F814B0BDE8F0810F
:1052E000012A1CBF14B0BDE8F0811878012808BF5E
:1052F000012038BF002098BF86F82E0026D9CDE7C0
:10530000012A1CBF14B0BDE8F0811878012808BF3D
:10531000012038BF002098BF86F82F0016D9BDE7BE
:105320003089B8427FF658AF2148022A806900EBE5
:10533000470004BF1988018008D0002A1CBF14B0A0
:10534000BDE8F081FF22022109F0D4FE257014B0DF
:10535000BDE8F081022A07BF1888708514B0BDE847
:10536000F081F3E7022A07BF1888B08514B0BDE8C2
:10537000F081EBE7022A07BF1888308014B0BDE83F
:10538000F081E3E7012A07BF1878307714B0BDE851
:10539000F081DBE7012A1CBF14B0BDE8F08118786A
:1053A0001F2898BF7077D1D978E70000DA0000088D
:1053B000F8070020012A1CBF14B0BDE8F08118785E
:1053C0001F2898BFB077C1D968E7012A1CBF14B065
:1053D000BDE8F08118781F2898BFF077B6D95DE74F
:1053E000012A1CBF14B0BDE8F0811878322898BF9C
:1053F00086F82000AAD951E7012A1CBF14B0BDE8E5
:10540000F08118781F2898BF86F821009ED945E7BB
:10541000012A07BF187886F8220014B0BDE8F08191
:1054200094E7012A07BF187886F8230014B0BDE876
:10543000F0818BE7012A07BF187886F8240014B0A2
:10544000BDE8F08182E7012A1CBF14B0BDE8F081FD
:1054500018781F2898BF86F825007FF677AF1DE7DC
:10546000012A07BF187886F8310014B0BDE8F08132
:105470006CE7012A1CBF14B0BDE8F0811F783846E4
:1054800005F015FB002818BF86F832707FF45EAF78
:1054900014B0BDE8F081012A1CBF14B0BDE8F08152
:1054A000187896F8341081428EBF86F8330014B015
:1054B000BDE8F0814AE7012A1CBF14B0BDE8F081C5
:1054C000187896F83310814232BF86F8340014B051
:1054D000BDE8F0813AE7012A7FF4E0AE18780128B0
:1054E00008BF012038BF002098BF86F835003FF67E
:1054F000D5AE2BE7012A1CBF14B0BDE8F0811878A7
:10550000002818BF012086F83A001FE7012A1CBFB7
:1055100014B0BDE8F081187896F83C1081428EBF37
:1055200086F83B0014B0BDE8F0810FE7012A1CBFEC
:1055300014B0BDE8F081187896F83B10814232BF74
:1055400086F83C0014B0BDE8F081FFE6012A1CBFDC
:1055500014B0BDE8F0811878322898BF86F83D0075
:105560007FF6F4AE9AE6012A1CBF14B0BDE8F081C4
:1055700018781F2898BF86F83E007FF6E7AE8DE6C4
:10558000012A1CBF14B0BDE8F08118781F2898BF0D
:1055900086F83F007FF6DAAE80E600B5A7B06A462F
:1055A0000021532003F071FBBDF80B0027B000BDB4
:1055B00000B593B06A460021082002F0C5FEBDF890
:1055C0000B0013B000BD00B593B06A4600210F2058
:1055D00002F0BAFE9DF80B0013B000BD00B5A7B0F5
:1055E0006A46002140F20F1003F04FFBBDF80B009C
:1055F00027B000BD00B593B06A4600212B4802F0E9
:10560000A3FEBDF80B0013B000BD00B593B06A4611
:105610000021274802F098FE9DF80B0013B000BD52
:1056200000B5ADB001466A46224803F02EFB9DF856
:10563000000000281EBF07202DB000BDDDF80B00C4
:105640002790DDF80F002890DDF813002990DDF891
:1056500017002A90BDF81B00ADF8AC009DF8A8001B
:105660002DB0C0F3420000BD00B5A7B06A460021CE
:1056700040F21F2003F009FB9DF8000000280CBF3A
:105680009DF80B00002027B000BD00B5A7B0014673
:105690006A46094803F0F9FA9DF8000000280CBF9B
:1056A0009DF80F00002027B000BD0000D8000008C2
:1056B000D9000008020000081B02000800F0F9BF32
:1056C00030B4FA4990E81C1001F1AC0585E81C10D3
:1056D0000069C1F8BC0030BC00F0EBBF10B4F34A65
:1056E00003460024506CB2F8482021468A420CD967
:1056F000B0F807C0BCF1000F07D0B0F800C09C455F
:105700001CBF0930491CF1D10446204610BC70472B
:105710002DE9F0410B4682B014460146B0F5077FF3
:105720001CBFA1F50070B0F11A000DD0A1F50070FA
:1057300006381CBFA1F10060B0F5087004D0DC4849
:10574000814218BF002000D10120002520B9002B84
:1057500018BFF92040F0668340F2222C0127042272
:10576000D24EA1F22220614500F0C08217DCA1F5E3
:105770000070222880F04381DFE800F054FDFCFB3C
:10578000FAF9F8F7F6F5F4F3F2F1F0EFEEEDECEBF1
:10579000F9EAF949E99CE89CB1E7E6E5E4E3C549A3
:1057A000A0EB010C88425CD024DCC349A0EB0103D0
:1057B000884200F0528115DCC04BA0EB03019842F7
:1057C00077D008DC012800F0B782BD49401871D0BD
:1057D000012870D013E101296ED002296DD0032970
:1057E0006CD00CE1082B65D2DFE803F064F5F4F32C
:1057F000F2F12731BCF1100F5CD2DFE80CF05B3C1A
:1058000046506068F4F3F25B84F1F0EFEEED3A4657
:10581000277006F15B01601C09F04CFC02B02846C1
:10582000BDE8F0813A46277006F15C01601C09F082
:1058300041FC02B02846BDE8F081227006F1240147
:10584000601C09F037FC02B02846BDE8F0812270E8
:1058500006F12801601C09F02DFC02B02846BDE8C5
:10586000F081227006F12C01601C09F023FC02B0CB
:105870002846BDE8F081227006F13001601C09F075
:1058800019FC02B02846BDE8F081227006F134010F
:10589000601C09F00FFC02B02846BDE8F0812270C0
:1058A00006F13801601C09F005FC284602B0BDE88D
:1058B000F081B0E0A3E0A5E0B6E0BEE0C5E0227074
:1058C00006F13C01601C09F0F5FB2846EEE722706A
:1058D00006F14001601C09F0EDFB2846E6E7B6F84A
:1058E0004810204699427FD903EBC301726CCB1D4F
:1058F0001A44128822B309220270736C601C194486
:1059000009F0D8FB60E04FF0000CB6F84820716C4D
:10591000F9276046824209D9B1F8076036B10E888E
:105920009E421CBF401C0931F4D18C465FEA0C0139
:1059300005D009222270601C09F0BCFB00271BE087
:1059400052E0CAE1C0E1B6E1A1E18CE167E162E1C8
:105950005AE156E101E1F8E0EFE0E6E0DDE0D4E015
:10596000CBE0C3E0BBE0B7E009E040E010E04EE18F
:105970003EE134E12AE120E1384600F050BA3A46EF
:10598000277006F15A01601C09F094FB28468DE748
:10599000F06C03EB430100EB4100B6F85010994264
:1059A00022D90188D0F80220D1421DD008212170CF
:1059B0004449B1F84A10A4F801100188A4F8031072
:1059C000D0F80200C4F80500002000F028BA7BE0FF
:1059D00063E05AE051E048E0C2E1A6E19EE196E1D1
:1059E0008DE1B1E1C8E0C0E0F92000F018BA227002
:1059F00006F16001601C09F05DFB284656E7F420C3
:105A000000F010BA3A46277006F16401601C09F0F4
:105A100051FB28464AE73A46277006F16501601CAB
:105A200009F048FB284641E73A46277006F166012F
:105A3000601C09F03FFB284638E7227006F1680138
:105A4000601C09F037FB284630E7227006F16C0134
:105A5000601C09F02FFB284628E7227006F1700130
:105A6000601C09F027FB284620E7227006F174012C
:105A7000601C09F01FFB284618E7227006F1780128
:105A8000601C09F017FB284610E7227006F17C0124
:105A9000601C09F00FFB284608E7227006F1800120
:105AA000601C09F007FB284600E70000A009002061
:105AB0001B020008EFFFFF07E7FFFF07E3FFFF07F9
:105AC0001F0000F880030020227006F18401601C92
:105AD00009F0F0FA2846E9E62770627015E12270B5
